{
  "_format": "hh-sol-artifact-1",
  "contractName": "PropertyNFT",
  "sourceName": "contracts/PropertyNFT.sol",
  "abi": [
    {
      "inputs": [],
      "stateMutability": "nonpayable",
      "type": "constructor"
    },
    {
      "anonymous": false,
      "inputs": [
        {
          "indexed": true,
          "internalType": "address",
          "name": "owner",
          "type": "address"
        },
        {
          "indexed": true,
          "internalType": "address",
          "name": "approved",
          "type": "address"
        },
        {
          "indexed": true,
          "internalType": "uint256",
          "name": "tokenId",
          "type": "uint256"
        }
      ],
      "name": "Approval",
      "type": "event"
    },
    {
      "anonymous": false,
      "inputs": [
        {
          "indexed": true,
          "internalType": "address",
          "name": "owner",
          "type": "address"
        },
        {
          "indexed": true,
          "internalType": "address",
          "name": "operator",
          "type": "address"
        },
        {
          "indexed": false,
          "internalType": "bool",
          "name": "approved",
          "type": "bool"
        }
      ],
      "name": "ApprovalForAll",
      "type": "event"
    },
    {
      "anonymous": false,
      "inputs": [
        {
          "indexed": false,
          "internalType": "uint256",
          "name": "_fromTokenId",
          "type": "uint256"
        },
        {
          "indexed": false,
          "internalType": "uint256",
          "name": "_toTokenId",
          "type": "uint256"
        }
      ],
      "name": "BatchMetadataUpdate",
      "type": "event"
    },
    {
      "anonymous": false,
      "inputs": [
        {
          "indexed": false,
          "internalType": "uint256",
          "name": "_tokenId",
          "type": "uint256"
        }
      ],
      "name": "MetadataUpdate",
      "type": "event"
    },
    {
      "anonymous": false,
      "inputs": [
        {
          "indexed": true,
          "internalType": "address",
          "name": "previousOwner",
          "type": "address"
        },
        {
          "indexed": true,
          "internalType": "address",
          "name": "newOwner",
          "type": "address"
        }
      ],
      "name": "OwnershipTransferred",
      "type": "event"
    },
    {
      "anonymous": false,
      "inputs": [
        {
          "indexed": false,
          "internalType": "address",
          "name": "account",
          "type": "address"
        }
      ],
      "name": "Paused",
      "type": "event"
    },
    {
      "anonymous": false,
      "inputs": [
        {
          "indexed": true,
          "internalType": "address",
          "name": "from",
          "type": "address"
        },
        {
          "indexed": true,
          "internalType": "address",
          "name": "to",
          "type": "address"
        },
        {
          "indexed": true,
          "internalType": "uint256",
          "name": "tokenId",
          "type": "uint256"
        }
      ],
      "name": "Transfer",
      "type": "event"
    },
    {
      "anonymous": false,
      "inputs": [
        {
          "indexed": false,
          "internalType": "address",
          "name": "account",
          "type": "address"
        }
      ],
      "name": "Unpaused",
      "type": "event"
    },
    {
      "inputs": [
        {
          "internalType": "address",
          "name": "to",
          "type": "address"
        },
        {
          "internalType": "uint256",
          "name": "tokenId",
          "type": "uint256"
        }
      ],
      "name": "approve",
      "outputs": [],
      "stateMutability": "nonpayable",
      "type": "function"
    },
    {
      "inputs": [
        {
          "internalType": "address",
          "name": "owner",
          "type": "address"
        }
      ],
      "name": "balanceOf",
      "outputs": [
        {
          "internalType": "uint256",
          "name": "",
          "type": "uint256"
        }
      ],
      "stateMutability": "view",
      "type": "function"
    },
    {
      "inputs": [
        {
          "internalType": "uint256",
          "name": "tokenId",
          "type": "uint256"
        }
      ],
      "name": "getApproved",
      "outputs": [
        {
          "internalType": "address",
          "name": "",
          "type": "address"
        }
      ],
      "stateMutability": "view",
      "type": "function"
    },
    {
      "inputs": [
        {
          "internalType": "address",
          "name": "owner",
          "type": "address"
        },
        {
          "internalType": "address",
          "name": "operator",
          "type": "address"
        }
      ],
      "name": "isApprovedForAll",
      "outputs": [
        {
          "internalType": "bool",
          "name": "",
          "type": "bool"
        }
      ],
      "stateMutability": "view",
      "type": "function"
    },
    {
      "inputs": [
        {
          "internalType": "address",
          "name": "to",
          "type": "address"
        },
        {
          "internalType": "string",
          "name": "tokenURI",
          "type": "string"
        }
      ],
      "name": "mintProperty",
      "outputs": [
        {
          "internalType": "uint256",
          "name": "",
          "type": "uint256"
        }
      ],
      "stateMutability": "nonpayable",
      "type": "function"
    },
    {
      "inputs": [],
      "name": "name",
      "outputs": [
        {
          "internalType": "string",
          "name": "",
          "type": "string"
        }
      ],
      "stateMutability": "view",
      "type": "function"
    },
    {
      "inputs": [],
      "name": "owner",
      "outputs": [
        {
          "internalType": "address",
          "name": "",
          "type": "address"
        }
      ],
      "stateMutability": "view",
      "type": "function"
    },
    {
      "inputs": [
        {
          "internalType": "uint256",
          "name": "tokenId",
          "type": "uint256"
        }
      ],
      "name": "ownerOf",
      "outputs": [
        {
          "internalType": "address",
          "name": "",
          "type": "address"
        }
      ],
      "stateMutability": "view",
      "type": "function"
    },
    {
      "inputs": [],
      "name": "pause",
      "outputs": [],
      "stateMutability": "nonpayable",
      "type": "function"
    },
    {
      "inputs": [],
      "name": "paused",
      "outputs": [
        {
          "internalType": "bool",
          "name": "",
          "type": "bool"
        }
      ],
      "stateMutability": "view",
      "type": "function"
    },
    {
      "inputs": [],
      "name": "renounceOwnership",
      "outputs": [],
      "stateMutability": "nonpayable",
      "type": "function"
    },
    {
      "inputs": [
        {
          "internalType": "address",
          "name": "from",
          "type": "address"
        },
        {
          "internalType": "address",
          "name": "to",
          "type": "address"
        },
        {
          "internalType": "uint256",
          "name": "tokenId",
          "type": "uint256"
        }
      ],
      "name": "safeTransferFrom",
      "outputs": [],
      "stateMutability": "nonpayable",
      "type": "function"
    },
    {
      "inputs": [
        {
          "internalType": "address",
          "name": "from",
          "type": "address"
        },
        {
          "internalType": "address",
          "name": "to",
          "type": "address"
        },
        {
          "internalType": "uint256",
          "name": "tokenId",
          "type": "uint256"
        },
        {
          "internalType": "bytes",
          "name": "data",
          "type": "bytes"
        }
      ],
      "name": "safeTransferFrom",
      "outputs": [],
      "stateMutability": "nonpayable",
      "type": "function"
    },
    {
      "inputs": [
        {
          "internalType": "address",
          "name": "operator",
          "type": "address"
        },
        {
          "internalType": "bool",
          "name": "approved",
          "type": "bool"
        }
      ],
      "name": "setApprovalForAll",
      "outputs": [],
      "stateMutability": "nonpayable",
      "type": "function"
    },
    {
      "inputs": [
        {
          "internalType": "bytes4",
          "name": "interfaceId",
          "type": "bytes4"
        }
      ],
      "name": "supportsInterface",
      "outputs": [
        {
          "internalType": "bool",
          "name": "",
          "type": "bool"
        }
      ],
      "stateMutability": "view",
      "type": "function"
    },
    {
      "inputs": [],
      "name": "symbol",
      "outputs": [
        {
          "internalType": "string",
          "name": "",
          "type": "string"
        }
      ],
      "stateMutability": "view",
      "type": "function"
    },
    {
      "inputs": [
        {
          "internalType": "uint256",
          "name": "tokenId",
          "type": "uint256"
        }
      ],
      "name": "tokenURI",
      "outputs": [
        {
          "internalType": "string",
          "name": "",
          "type": "string"
        }
      ],
      "stateMutability": "view",
      "type": "function"
    },
    {
      "inputs": [
        {
          "internalType": "address",
          "name": "from",
          "type": "address"
        },
        {
          "internalType": "address",
          "name": "to",
          "type": "address"
        },
        {
          "internalType": "uint256",
          "name": "tokenId",
          "type": "uint256"
        }
      ],
      "name": "transferFrom",
      "outputs": [],
      "stateMutability": "nonpayable",
      "type": "function"
    },
    {
      "inputs": [
        {
          "internalType": "address",
          "name": "newOwner",
          "type": "address"
        }
      ],
      "name": "transferOwnership",
      "outputs": [],
      "stateMutability": "nonpayable",
      "type": "function"
    },
    {
      "inputs": [],
      "name": "unpause",
      "outputs": [],
      "stateMutability": "nonpayable",
      "type": "function"
    }
  ],
  "bytecode": "0x60806040523480156200001157600080fd5b506040518060400160405280600d81526020016c141c9bdc195c9d1e4811195959609a1b81525060405180604001604052806004815260200163050524f560e41b8152508160009081620000669190620001a0565b506001620000758282620001a0565b505050620000926200008c620000a560201b60201c565b620000a9565b6007805460ff60a01b191690556200026c565b3390565b600780546001600160a01b038381166001600160a01b0319831681179093556040519116919082907f8be0079c531659141344cd1fd0a4f28419497f9722a3daafe3b4186f6b6457e090600090a35050565b634e487b7160e01b600052604160045260246000fd5b600181811c908216806200012657607f821691505b6020821081036200014757634e487b7160e01b600052602260045260246000fd5b50919050565b601f8211156200019b57600081815260208120601f850160051c81016020861015620001765750805b601f850160051c820191505b81811015620001975782815560010162000182565b5050505b505050565b81516001600160401b03811115620001bc57620001bc620000fb565b620001d481620001cd845462000111565b846200014d565b602080601f8311600181146200020c5760008415620001f35750858301515b600019600386901b1c1916600185901b17855562000197565b600085815260208120601f198616915b828110156200023d578886015182559484019460019091019084016200021c565b50858210156200025c5787850151600019600388901b60f8161c191681555b5050505050600190811b01905550565b611aac806200027c6000396000f3fe608060405234801561001057600080fd5b506004361061012c5760003560e01c806370a08231116100ad578063a22cb46511610071578063a22cb4651461025e578063b88d4fde14610271578063c87b56dd14610284578063e985e9c514610297578063f2fde38b146102d357600080fd5b806370a0823114610222578063715018a6146102355780638456cb591461023d5780638da5cb5b1461024557806395d89b411461025657600080fd5b806323b872dd116100f457806323b872dd146101cf5780633f4ba83a146101e257806342842e0e146101ea5780635c975abb146101fd5780636352211e1461020f57600080fd5b806301ffc9a71461013157806306fdde0314610159578063081812fc1461016e578063095ea7b314610199578063177dc17f146101ae575b600080fd5b61014461013f366004611491565b6102e6565b60405190151581526020015b60405180910390f35b610161610311565b60405161015091906114fe565b61018161017c366004611511565b6103a3565b6040516001600160a01b039091168152602001610150565b6101ac6101a7366004611546565b6103ca565b005b6101c16101bc3660046115fc565b6104e4565b604051908152602001610150565b6101ac6101dd36600461165e565b6105d3565b6101ac610604565b6101ac6101f836600461165e565b610616565b600754600160a01b900460ff16610144565b61018161021d366004611511565b610631565b6101c161023036600461169a565b610691565b6101ac610717565b6101ac610729565b6007546001600160a01b0316610181565b610161610739565b6101ac61026c3660046116b5565b610748565b6101ac61027f3660046116f1565b610757565b610161610292366004611511565b61078f565b6101446102a536600461176d565b6001600160a01b03918216600090815260056020908152604080832093909416825291909152205460ff1690565b6101ac6102e136600461169a565b61089f565b60006001600160e01b03198216632483248360e11b148061030b575061030b82610918565b92915050565b606060008054610320906117a0565b80601f016020809104026020016040519081016040528092919081815260200182805461034c906117a0565b80156103995780601f1061036e57610100808354040283529160200191610399565b820191906000526020600020905b81548152906001019060200180831161037c57829003601f168201915b5050505050905090565b60006103ae82610968565b506000908152600460205260409020546001600160a01b031690565b60006103d582610631565b9050806001600160a01b0316836001600160a01b0316036104475760405162461bcd60e51b815260206004820152602160248201527f4552433732313a20617070726f76616c20746f2063757272656e74206f776e656044820152603960f91b60648201526084015b60405180910390fd5b336001600160a01b0382161480610463575061046381336102a5565b6104d55760405162461bcd60e51b815260206004820152603d60248201527f4552433732313a20617070726f76652063616c6c6572206973206e6f7420746f60448201527f6b656e206f776e6572206f7220617070726f76656420666f7220616c6c000000606482015260840161043e565b6104df83836109c7565b505050565b60006104ee610a35565b6104f6610a8f565b6001600160a01b03831661054c5760405162461bcd60e51b815260206004820152601960248201527f496e76616c696420726563697069656e74206164647265737300000000000000604482015260640161043e565b600082511161059d5760405162461bcd60e51b815260206004820152601960248201527f546f6b656e205552492063616e6e6f7420626520656d70747900000000000000604482015260640161043e565b6001600860008282546105b091906117da565b90915550506008546105c28482610adc565b6105cc8184610af6565b9392505050565b6105dd3382610bc1565b6105f95760405162461bcd60e51b815260040161043e906117fb565b6104df838383610c3f565b61060c610a35565b610614610da3565b565b6104df83838360405180602001604052806000815250610757565b6000818152600260205260408120546001600160a01b03168061030b5760405162461bcd60e51b8152602060048201526018602482015277115490cdcc8c4e881a5b9d985b1a59081d1bdad95b88125160421b604482015260640161043e565b60006001600160a01b0382166106fb5760405162461bcd60e51b815260206004820152602960248201527f4552433732313a2061646472657373207a65726f206973206e6f7420612076616044820152683634b21037bbb732b960b91b606482015260840161043e565b506001600160a01b031660009081526003602052604090205490565b61071f610a35565b6106146000610df8565b610731610a35565b610614610e4a565b606060018054610320906117a0565b610753338383610e8d565b5050565b6107613383610bc1565b61077d5760405162461bcd60e51b815260040161043e906117fb565b61078984848484610f5b565b50505050565b606061079a82610968565b600082815260066020526040812080546107b3906117a0565b80601f01602080910402602001604051908101604052809291908181526020018280546107df906117a0565b801561082c5780601f106108015761010080835404028352916020019161082c565b820191906000526020600020905b81548152906001019060200180831161080f57829003601f168201915b50505050509050600061084a60408051602081019091526000815290565b9050805160000361085c575092915050565b81511561088e578082604051602001610876929190611848565b60405160208183030381529060405292505050919050565b61089784610f8e565b949350505050565b6108a7610a35565b6001600160a01b03811661090c5760405162461bcd60e51b815260206004820152602660248201527f4f776e61626c653a206e6577206f776e657220697320746865207a65726f206160448201526564647265737360d01b606482015260840161043e565b61091581610df8565b50565b60006001600160e01b031982166380ac58cd60e01b148061094957506001600160e01b03198216635b5e139f60e01b145b8061030b57506301ffc9a760e01b6001600160e01b031983161461030b565b6000818152600260205260409020546001600160a01b03166109155760405162461bcd60e51b8152602060048201526018602482015277115490cdcc8c4e881a5b9d985b1a59081d1bdad95b88125160421b604482015260640161043e565b600081815260046020526040902080546001600160a01b0319166001600160a01b03841690811790915581906109fc82610631565b6001600160a01b03167f8c5be1e5ebec7d5bd14f71427d1e84f3dd0314c0f7b2291e5b200ac8c7c3b92560405160405180910390a45050565b6007546001600160a01b031633146106145760405162461bcd60e51b815260206004820181905260248201527f4f776e61626c653a2063616c6c6572206973206e6f7420746865206f776e6572604482015260640161043e565b600754600160a01b900460ff16156106145760405162461bcd60e51b815260206004820152601060248201526f14185d5cd8589b194e881c185d5cd95960821b604482015260640161043e565b610753828260405180602001604052806000815250611001565b6000828152600260205260409020546001600160a01b0316610b715760405162461bcd60e51b815260206004820152602e60248201527f45524337323155524953746f726167653a2055524920736574206f66206e6f6e60448201526d32bc34b9ba32b73a103a37b5b2b760911b606482015260840161043e565b6000828152600660205260409020610b8982826118c5565b506040518281527ff8e1a15aba9398e019f0b49df1a4fde98ee17ae345cb5f6b5e2c27f5033e8ce79060200160405180910390a15050565b600080610bcd83610631565b9050806001600160a01b0316846001600160a01b03161480610c1457506001600160a01b0380821660009081526005602090815260408083209388168352929052205460ff165b806108975750836001600160a01b0316610c2d846103a3565b6001600160a01b031614949350505050565b826001600160a01b0316610c5282610631565b6001600160a01b031614610c785760405162461bcd60e51b815260040161043e90611985565b6001600160a01b038216610cda5760405162461bcd60e51b8152602060048201526024808201527f4552433732313a207472616e7366657220746f20746865207a65726f206164646044820152637265737360e01b606482015260840161043e565b826001600160a01b0316610ced82610631565b6001600160a01b031614610d135760405162461bcd60e51b815260040161043e90611985565b600081815260046020908152604080832080546001600160a01b03199081169091556001600160a01b0387811680865260038552838620805460001901905590871680865283862080546001019055868652600290945282852080549092168417909155905184937fddf252ad1be2c89b69c2b068fc378daa952ba7f163c4a11628f55a4df523b3ef91a4505050565b610dab611034565b6007805460ff60a01b191690557f5db9ee0a495bf2e6ff9c91a7834c1ba4fdd244a5e8aa4e537bd38aeae4b073aa335b6040516001600160a01b03909116815260200160405180910390a1565b600780546001600160a01b038381166001600160a01b0319831681179093556040519116919082907f8be0079c531659141344cd1fd0a4f28419497f9722a3daafe3b4186f6b6457e090600090a35050565b610e52610a8f565b6007805460ff60a01b1916600160a01b1790557f62e78cea01bee320cd4e420270b5ea74000d11b0c9f74754ebdbfc544b05a258610ddb3390565b816001600160a01b0316836001600160a01b031603610eee5760405162461bcd60e51b815260206004820152601960248201527f4552433732313a20617070726f766520746f2063616c6c657200000000000000604482015260640161043e565b6001600160a01b03838116600081815260056020908152604080832094871680845294825291829020805460ff191686151590811790915591519182527f17307eab39ab6107e8899845ad3d59bd9653f200f220920489ca2b5937696c31910160405180910390a3505050565b610f66848484610c3f565b610f7284848484611084565b6107895760405162461bcd60e51b815260040161043e906119ca565b6060610f9982610968565b6000610fb060408051602081019091526000815290565b90506000815111610fd057604051806020016040528060008152506105cc565b80610fda84611185565b604051602001610feb929190611848565b6040516020818303038152906040529392505050565b61100b8383611218565b6110186000848484611084565b6104df5760405162461bcd60e51b815260040161043e906119ca565b600754600160a01b900460ff166106145760405162461bcd60e51b815260206004820152601460248201527314185d5cd8589b194e881b9bdd081c185d5cd95960621b604482015260640161043e565b60006001600160a01b0384163b1561117a57604051630a85bd0160e11b81526001600160a01b0385169063150b7a02906110c8903390899088908890600401611a1c565b6020604051808303816000875af1925050508015611103575060408051601f3d908101601f1916820190925261110091810190611a59565b60015b611160573d808015611131576040519150601f19603f3d011682016040523d82523d6000602084013e611136565b606091505b5080516000036111585760405162461bcd60e51b815260040161043e906119ca565b805181602001fd5b6001600160e01b031916630a85bd0160e11b149050610897565b506001949350505050565b60606000611192836113a3565b600101905060008167ffffffffffffffff8111156111b2576111b2611570565b6040519080825280601f01601f1916602001820160405280156111dc576020820181803683370190505b5090508181016020015b600019016f181899199a1a9b1b9c1cb0b131b232b360811b600a86061a8153600a85049450846111e657509392505050565b6001600160a01b03821661126e5760405162461bcd60e51b815260206004820181905260248201527f4552433732313a206d696e7420746f20746865207a65726f2061646472657373604482015260640161043e565b6000818152600260205260409020546001600160a01b0316156112d35760405162461bcd60e51b815260206004820152601c60248201527f4552433732313a20746f6b656e20616c7265616479206d696e74656400000000604482015260640161043e565b6000818152600260205260409020546001600160a01b0316156113385760405162461bcd60e51b815260206004820152601c60248201527f4552433732313a20746f6b656e20616c7265616479206d696e74656400000000604482015260640161043e565b6001600160a01b038216600081815260036020908152604080832080546001019055848352600290915280822080546001600160a01b0319168417905551839291907fddf252ad1be2c89b69c2b068fc378daa952ba7f163c4a11628f55a4df523b3ef908290a45050565b60008072184f03e93ff9f4daa797ed6e38ed64bf6a1f0160401b83106113e25772184f03e93ff9f4daa797ed6e38ed64bf6a1f0160401b830492506040015b6d04ee2d6d415b85acef8100000000831061140e576d04ee2d6d415b85acef8100000000830492506020015b662386f26fc10000831061142c57662386f26fc10000830492506010015b6305f5e1008310611444576305f5e100830492506008015b612710831061145857612710830492506004015b6064831061146a576064830492506002015b600a831061030b5760010192915050565b6001600160e01b03198116811461091557600080fd5b6000602082840312156114a357600080fd5b81356105cc8161147b565b60005b838110156114c95781810151838201526020016114b1565b50506000910152565b600081518084526114ea8160208601602086016114ae565b601f01601f19169290920160200192915050565b6020815260006105cc60208301846114d2565b60006020828403121561152357600080fd5b5035919050565b80356001600160a01b038116811461154157600080fd5b919050565b6000806040838503121561155957600080fd5b6115628361152a565b946020939093013593505050565b634e487b7160e01b600052604160045260246000fd5b600067ffffffffffffffff808411156115a1576115a1611570565b604051601f8501601f19908116603f011681019082821181831017156115c9576115c9611570565b816040528093508581528686860111156115e257600080fd5b858560208301376000602087830101525050509392505050565b6000806040838503121561160f57600080fd5b6116188361152a565b9150602083013567ffffffffffffffff81111561163457600080fd5b8301601f8101851361164557600080fd5b61165485823560208401611586565b9150509250929050565b60008060006060848603121561167357600080fd5b61167c8461152a565b925061168a6020850161152a565b9150604084013590509250925092565b6000602082840312156116ac57600080fd5b6105cc8261152a565b600080604083850312156116c857600080fd5b6116d18361152a565b9150602083013580151581146116e657600080fd5b809150509250929050565b6000806000806080858703121561170757600080fd5b6117108561152a565b935061171e6020860161152a565b925060408501359150606085013567ffffffffffffffff81111561174157600080fd5b8501601f8101871361175257600080fd5b61176187823560208401611586565b91505092959194509250565b6000806040838503121561178057600080fd5b6117898361152a565b91506117976020840161152a565b90509250929050565b600181811c908216806117b457607f821691505b6020821081036117d457634e487b7160e01b600052602260045260246000fd5b50919050565b8082018082111561030b57634e487b7160e01b600052601160045260246000fd5b6020808252602d908201527f4552433732313a2063616c6c6572206973206e6f7420746f6b656e206f776e6560408201526c1c881bdc88185c1c1c9bdd9959609a1b606082015260800190565b6000835161185a8184602088016114ae565b83519083019061186e8183602088016114ae565b01949350505050565b601f8211156104df57600081815260208120601f850160051c8101602086101561189e5750805b601f850160051c820191505b818110156118bd578281556001016118aa565b505050505050565b815167ffffffffffffffff8111156118df576118df611570565b6118f3816118ed84546117a0565b84611877565b602080601f83116001811461192857600084156119105750858301515b600019600386901b1c1916600185901b1785556118bd565b600085815260208120601f198616915b8281101561195757888601518255948401946001909101908401611938565b50858210156119755787850151600019600388901b60f8161c191681555b5050505050600190811b01905550565b60208082526025908201527f4552433732313a207472616e736665722066726f6d20696e636f72726563742060408201526437bbb732b960d91b606082015260800190565b60208082526032908201527f4552433732313a207472616e7366657220746f206e6f6e20455243373231526560408201527131b2b4bb32b91034b6b83632b6b2b73a32b960711b606082015260800190565b6001600160a01b0385811682528416602082015260408101839052608060608201819052600090611a4f908301846114d2565b9695505050505050565b600060208284031215611a6b57600080fd5b81516105cc8161147b56fea26469706673582212207a66513c9426013f2f9d123c9293ca87c7c920378a0e78512005082b7baaebfc64736f6c63430008140033",
  "linkReferences": {},
  "deployedLinkReferences": {}
}