{
  "_format": "hh-sol-artifact-1",
  "contractName": "RentDistribution",
  "sourceName": "contracts/RentDistribution.sol",
  "abi": [
    {
      "anonymous": false,
      "inputs": [
        {
          "indexed": true,
          "internalType": "uint256",
          "name": "propertyId",
          "type": "uint256"
        },
        {
          "indexed": true,
          "internalType": "address",
          "name": "investor",
          "type": "address"
        }
      ],
      "name": "InvestorAdded",
      "type": "event"
    },
    {
      "anonymous": false,
      "inputs": [
        {
          "indexed": true,
          "internalType": "uint256",
          "name": "propertyId",
          "type": "uint256"
        },
        {
          "indexed": true,
          "internalType": "address",
          "name": "investor",
          "type": "address"
        },
        {
          "indexed": false,
          "internalType": "uint256",
          "name": "amount",
          "type": "uint256"
        },
        {
          "indexed": false,
          "internalType": "uint256",
          "name": "ownershipBps",
          "type": "uint256"
        }
      ],
      "name": "InvestorPaid",
      "type": "event"
    },
    {
      "anonymous": false,
      "inputs": [
        {
          "indexed": true,
          "internalType": "uint256",
          "name": "propertyId",
          "type": "uint256"
        },
        {
          "indexed": false,
          "internalType": "uint256",
          "name": "rentWei",
          "type": "uint256"
        }
      ],
      "name": "MonthlyRentSet",
      "type": "event"
    },
    {
      "anonymous": false,
      "inputs": [
        {
          "indexed": true,
          "internalType": "address",
          "name": "previousOwner",
          "type": "address"
        },
        {
          "indexed": true,
          "internalType": "address",
          "name": "newOwner",
          "type": "address"
        }
      ],
      "name": "OwnershipTransferred",
      "type": "event"
    },
    {
      "anonymous": false,
      "inputs": [
        {
          "indexed": false,
          "internalType": "address",
          "name": "account",
          "type": "address"
        }
      ],
      "name": "Paused",
      "type": "event"
    },
    {
      "anonymous": false,
      "inputs": [
        {
          "indexed": true,
          "internalType": "uint256",
          "name": "propertyId",
          "type": "uint256"
        },
        {
          "indexed": false,
          "internalType": "address",
          "name": "tokenContract",
          "type": "address"
        }
      ],
      "name": "PropertyRegistered",
      "type": "event"
    },
    {
      "anonymous": false,
      "inputs": [
        {
          "indexed": true,
          "internalType": "uint256",
          "name": "propertyId",
          "type": "uint256"
        },
        {
          "indexed": false,
          "internalType": "uint256",
          "name": "totalAmount",
          "type": "uint256"
        },
        {
          "indexed": false,
          "internalType": "uint256",
          "name": "investorCount",
          "type": "uint256"
        }
      ],
      "name": "RentDistributed",
      "type": "event"
    },
    {
      "anonymous": false,
      "inputs": [
        {
          "indexed": true,
          "internalType": "uint256",
          "name": "propertyId",
          "type": "uint256"
        },
        {
          "indexed": true,
          "internalType": "address",
          "name": "tenant",
          "type": "address"
        },
        {
          "indexed": false,
          "internalType": "uint256",
          "name": "amount",
          "type": "uint256"
        }
      ],
      "name": "RentPaid",
      "type": "event"
    },
    {
      "anonymous": false,
      "inputs": [
        {
          "indexed": true,
          "internalType": "uint256",
          "name": "propertyId",
          "type": "uint256"
        },
        {
          "indexed": true,
          "internalType": "address",
          "name": "investor",
          "type": "address"
        },
        {
          "indexed": false,
          "internalType": "uint256",
          "name": "amount",
          "type": "uint256"
        },
        {
          "indexed": false,
          "internalType": "uint256",
          "name": "ownershipBps",
          "type": "uint256"
        }
      ],
      "name": "RewardsAccrued",
      "type": "event"
    },
    {
      "anonymous": false,
      "inputs": [
        {
          "indexed": true,
          "internalType": "uint256",
          "name": "propertyId",
          "type": "uint256"
        },
        {
          "indexed": true,
          "internalType": "address",
          "name": "investor",
          "type": "address"
        },
        {
          "indexed": false,
          "internalType": "uint256",
          "name": "amount",
          "type": "uint256"
        }
      ],
      "name": "RewardsClaimed",
      "type": "event"
    },
    {
      "anonymous": false,
      "inputs": [
        {
          "indexed": false,
          "internalType": "address",
          "name": "account",
          "type": "address"
        }
      ],
      "name": "Unpaused",
      "type": "event"
    },
    {
      "inputs": [
        {
          "internalType": "uint256",
          "name": "propertyId",
          "type": "uint256"
        },
        {
          "internalType": "address",
          "name": "investor",
          "type": "address"
        }
      ],
      "name": "addInvestor",
      "outputs": [],
      "stateMutability": "nonpayable",
      "type": "function"
    },
    {
      "inputs": [
        {
          "internalType": "uint256",
          "name": "propertyId",
          "type": "uint256"
        },
        {
          "internalType": "address[]",
          "name": "investors",
          "type": "address[]"
        }
      ],
      "name": "addInvestors",
      "outputs": [],
      "stateMutability": "nonpayable",
      "type": "function"
    },
    {
      "inputs": [
        {
          "internalType": "uint256",
          "name": "propertyId",
          "type": "uint256"
        },
        {
          "internalType": "uint256",
          "name": "rentAmount",
          "type": "uint256"
        }
      ],
      "name": "calculateDistribution",
      "outputs": [
        {
          "internalType": "address[]",
          "name": "investors",
          "type": "address[]"
        },
        {
          "internalType": "uint256[]",
          "name": "payouts",
          "type": "uint256[]"
        },
        {
          "internalType": "uint256[]",
          "name": "bps",
          "type": "uint256[]"
        }
      ],
      "stateMutability": "view",
      "type": "function"
    },
    {
      "inputs": [
        {
          "internalType": "uint256",
          "name": "propertyId",
          "type": "uint256"
        }
      ],
      "name": "claimRewards",
      "outputs": [],
      "stateMutability": "nonpayable",
      "type": "function"
    },
    {
      "inputs": [
        {
          "internalType": "address",
          "name": "",
          "type": "address"
        }
      ],
      "name": "claimableRewards",
      "outputs": [
        {
          "internalType": "uint256",
          "name": "",
          "type": "uint256"
        }
      ],
      "stateMutability": "view",
      "type": "function"
    },
    {
      "inputs": [
        {
          "internalType": "uint256",
          "name": "propertyId",
          "type": "uint256"
        }
      ],
      "name": "getInvestorCount",
      "outputs": [
        {
          "internalType": "uint256",
          "name": "",
          "type": "uint256"
        }
      ],
      "stateMutability": "view",
      "type": "function"
    },
    {
      "inputs": [
        {
          "internalType": "uint256",
          "name": "propertyId",
          "type": "uint256"
        }
      ],
      "name": "getInvestors",
      "outputs": [
        {
          "internalType": "address[]",
          "name": "",
          "type": "address[]"
        }
      ],
      "stateMutability": "view",
      "type": "function"
    },
    {
      "inputs": [
        {
          "internalType": "uint256",
          "name": "propertyId",
          "type": "uint256"
        }
      ],
      "name": "getPropertyInfo",
      "outputs": [
        {
          "internalType": "address",
          "name": "tokenContract",
          "type": "address"
        },
        {
          "internalType": "uint256",
          "name": "monthlyRentWei",
          "type": "uint256"
        },
        {
          "internalType": "bool",
          "name": "active",
          "type": "bool"
        },
        {
          "internalType": "uint256",
          "name": "investorCount",
          "type": "uint256"
        }
      ],
      "stateMutability": "view",
      "type": "function"
    },
    {
      "inputs": [
        {
          "internalType": "uint256",
          "name": "propertyId",
          "type": "uint256"
        },
        {
          "internalType": "address",
          "name": "account",
          "type": "address"
        }
      ],
      "name": "isInvestor",
      "outputs": [
        {
          "internalType": "bool",
          "name": "",
          "type": "bool"
        }
      ],
      "stateMutability": "view",
      "type": "function"
    },
    {
      "inputs": [],
      "name": "owner",
      "outputs": [
        {
          "internalType": "address",
          "name": "",
          "type": "address"
        }
      ],
      "stateMutability": "view",
      "type": "function"
    },
    {
      "inputs": [],
      "name": "pause",
      "outputs": [],
      "stateMutability": "nonpayable",
      "type": "function"
    },
    {
      "inputs": [],
      "name": "paused",
      "outputs": [
        {
          "internalType": "bool",
          "name": "",
          "type": "bool"
        }
      ],
      "stateMutability": "view",
      "type": "function"
    },
    {
      "inputs": [
        {
          "internalType": "uint256",
          "name": "propertyId",
          "type": "uint256"
        }
      ],
      "name": "payRent",
      "outputs": [],
      "stateMutability": "payable",
      "type": "function"
    },
    {
      "inputs": [
        {
          "internalType": "uint256",
          "name": "",
          "type": "uint256"
        }
      ],
      "name": "properties",
      "outputs": [
        {
          "internalType": "address",
          "name": "tokenContract",
          "type": "address"
        },
        {
          "internalType": "uint256",
          "name": "monthlyRentWei",
          "type": "uint256"
        },
        {
          "internalType": "bool",
          "name": "active",
          "type": "bool"
        }
      ],
      "stateMutability": "view",
      "type": "function"
    },
    {
      "inputs": [
        {
          "internalType": "uint256",
          "name": "",
          "type": "uint256"
        },
        {
          "internalType": "address",
          "name": "",
          "type": "address"
        }
      ],
      "name": "propertyClaimableRewards",
      "outputs": [
        {
          "internalType": "uint256",
          "name": "",
          "type": "uint256"
        }
      ],
      "stateMutability": "view",
      "type": "function"
    },
    {
      "inputs": [
        {
          "internalType": "uint256",
          "name": "",
          "type": "uint256"
        },
        {
          "internalType": "address",
          "name": "",
          "type": "address"
        }
      ],
      "name": "propertyClaimedRewards",
      "outputs": [
        {
          "internalType": "uint256",
          "name": "",
          "type": "uint256"
        }
      ],
      "stateMutability": "view",
      "type": "function"
    },
    {
      "inputs": [
        {
          "internalType": "uint256",
          "name": "propertyId",
          "type": "uint256"
        },
        {
          "internalType": "address",
          "name": "tokenContract",
          "type": "address"
        }
      ],
      "name": "registerProperty",
      "outputs": [],
      "stateMutability": "nonpayable",
      "type": "function"
    },
    {
      "inputs": [],
      "name": "renounceOwnership",
      "outputs": [],
      "stateMutability": "nonpayable",
      "type": "function"
    },
    {
      "inputs": [
        {
          "internalType": "uint256",
          "name": "propertyId",
          "type": "uint256"
        },
        {
          "internalType": "uint256",
          "name": "rentWei",
          "type": "uint256"
        }
      ],
      "name": "setMonthlyRent",
      "outputs": [],
      "stateMutability": "nonpayable",
      "type": "function"
    },
    {
      "inputs": [
        {
          "internalType": "address",
          "name": "",
          "type": "address"
        }
      ],
      "name": "totalClaimedRewards",
      "outputs": [
        {
          "internalType": "uint256",
          "name": "",
          "type": "uint256"
        }
      ],
      "stateMutability": "view",
      "type": "function"
    },
    {
      "inputs": [],
      "name": "totalRentCollected",
      "outputs": [
        {
          "internalType": "uint256",
          "name": "",
          "type": "uint256"
        }
      ],
      "stateMutability": "view",
      "type": "function"
    },
    {
      "inputs": [],
      "name": "totalRentDistributed",
      "outputs": [
        {
          "internalType": "uint256",
          "name": "",
          "type": "uint256"
        }
      ],
      "stateMutability": "view",
      "type": "function"
    },
    {
      "inputs": [
        {
          "internalType": "address",
          "name": "newOwner",
          "type": "address"
        }
      ],
      "name": "transferOwnership",
      "outputs": [],
      "stateMutability": "nonpayable",
      "type": "function"
    },
    {
      "inputs": [],
      "name": "unpause",
      "outputs": [],
      "stateMutability": "nonpayable",
      "type": "function"
    },
    {
      "stateMutability": "payable",
      "type": "receive"
    }
  ],
  "bytecode": "0x608060405234801561001057600080fd5b5061001a3361002d565b600180556002805460ff1916905561007d565b600080546001600160a01b038381166001600160a01b0319831681178455604051919092169283917f8be0079c531659141344cd1fd0a4f28419497f9722a3daafe3b4186f6b6457e09190a35050565b611fac8061008c6000396000f3fe60806040526004361061014f5760003560e01c8063a110b93f116100b6578063dc01f60d1161006f578063dc01f60d1461043d578063df4421221461046a578063e9cf8b301461048a578063f2fde38b146104a0578063f46e5fbc146104c0578063f7b10808146104f857600080fd5b8063a110b93f1461037a578063b5ec5216146103a7578063bbe30722146103c7578063cd4399f1146103e7578063d9e8843f146103fd578063da5467a51461041057600080fd5b80635c975abb116101085780635c975abb146102c4578063715018a6146102e85780637c5612a5146102fd5780638456cb591461031d57806387b7a715146103325780638da5cb5b1461035257600080fd5b80630962ef791461015b5780631139de551461017d57806326f8c348146101b35780633f4ba83a146101f957806340f0a0551461020e578063466252df1461029557600080fd5b3661015657005b600080fd5b34801561016757600080fd5b5061017b610176366004611c3c565b610568565b005b34801561018957600080fd5b5061019d610198366004611c3c565b6106eb565b6040516101aa9190611c99565b60405180910390f35b3480156101bf57600080fd5b506101eb6101ce366004611ccf565b600760209081526000928352604080842090915290825290205481565b6040519081526020016101aa565b34801561020557600080fd5b5061017b610757565b34801561021a57600080fd5b50610265610229366004611c3c565b600090815260036020908152604080832080546001820154600290920154600490945291909320546001600160a01b039091169360ff90921691565b604080516001600160a01b03909516855260208501939093529015159183019190915260608201526080016101aa565b3480156102a157600080fd5b506102b56102b0366004611cfb565b610769565b6040516101aa93929190611d4d565b3480156102d057600080fd5b5060025460ff165b60405190151581526020016101aa565b3480156102f457600080fd5b5061017b610b40565b34801561030957600080fd5b5061017b610318366004611d90565b610b52565b34801561032957600080fd5b5061017b610d20565b34801561033e57600080fd5b5061017b61034d366004611ccf565b610d30565b34801561035e57600080fd5b506000546040516001600160a01b0390911681526020016101aa565b34801561038657600080fd5b506101eb610395366004611e0f565b60086020526000908152604090205481565b3480156103b357600080fd5b5061017b6103c2366004611cfb565b610ed6565b3480156103d357600080fd5b5061017b6103e2366004611ccf565b610ff7565b3480156103f357600080fd5b506101eb600a5481565b61017b61040b366004611c3c565b611168565b34801561041c57600080fd5b506101eb61042b366004611c3c565b60009081526004602052604090205490565b34801561044957600080fd5b506101eb610458366004611e0f565b60066020526000908152604090205481565b34801561047657600080fd5b506102d8610485366004611ccf565b61185a565b34801561049657600080fd5b506101eb600b5481565b3480156104ac57600080fd5b5061017b6104bb366004611e0f565b611887565b3480156104cc57600080fd5b506101eb6104db366004611ccf565b600960209081526000928352604080842090915290825290205481565b34801561050457600080fd5b50610541610513366004611c3c565b6003602052600090815260409020805460018201546002909201546001600160a01b03909116919060ff1683565b604080516001600160a01b03909416845260208401929092521515908201526060016101aa565b6105706118fd565b610578611956565b6000818152600360205260409020600281015460ff166105b35760405162461bcd60e51b81526004016105aa90611e2a565b60405180910390fd5b6000828152600760209081526040808320338452909152902054806106115760405162461bcd60e51b81526020600482015260146024820152734e6f20636c61696d61626c65207265776172647360601b60448201526064016105aa565b60008381526007602090815260408083203384528252808320839055600690915281208054839290610644908490611e77565b9091555050600083815260096020908152604080832033845290915281208054839290610672908490611e8a565b90915550503360009081526008602052604081208054839290610696908490611e8a565b909155506106a69050338261199c565b604051818152339084907f3300bdb359cfb956935bca32e9db727413eab1ca84341f2e36caea85bb7969689060200160405180910390a350506106e860018055565b50565b60008181526004602090815260409182902080548351818402810184019094528084526060939283018282801561074b57602002820191906000526020600020905b81546001600160a01b0316815260019091019060200180831161072d575b50505050509050919050565b61075f611aba565b610767611b14565b565b60008281526003602052604090206002810154606091829182919060ff166107a35760405162461bcd60e51b81526004016105aa90611e2a565b600085116107f35760405162461bcd60e51b815260206004820152601c60248201527f52656e7420616d6f756e74206d75737420626520706f7369746976650000000060448201526064016105aa565b8054604080516318160ddd60e01b815290516001600160a01b039092169160009183916318160ddd916004808201926020929091908290030181865afa158015610841573d6000803e3d6000fd5b505050506040513d601f19601f820116820180604052508101906108659190611e9d565b9050600081116108b35760405162461bcd60e51b81526020600482015260196024820152784e6f20746f6b656e20737570706c7920617661696c61626c6560381b60448201526064016105aa565b6000888152600460205260409020805467ffffffffffffffff8111156108db576108db611eb6565b604051908082528060200260200182016040528015610904578160200160208202803683370190505b50815490975067ffffffffffffffff81111561092257610922611eb6565b60405190808252806020026020018201604052801561094b578160200160208202803683370190505b50815490965067ffffffffffffffff81111561096957610969611eb6565b604051908082528060200260200182016040528015610992578160200160208202803683370190505b50945060005b8154811015610b34578181815481106109b3576109b3611ecc565b9060005260206000200160009054906101000a90046001600160a01b03168882815181106109e3576109e3611ecc565b60200260200101906001600160a01b031690816001600160a01b0316815250506000846001600160a01b03166370a08231848481548110610a2657610a26611ecc565b60009182526020909120015460405160e083901b6001600160e01b03191681526001600160a01b039091166004820152602401602060405180830381865afa158015610a76573d6000803e3d6000fd5b505050506040513d601f19601f82011682018060405250810190610a9a9190611e9d565b905060008411610aab576000610ac2565b83610ab882612710611ee2565b610ac29190611f0f565b878381518110610ad457610ad4611ecc565b60200260200101818152505060008411610aef576000610b04565b83610afa828c611ee2565b610b049190611f0f565b888381518110610b1657610b16611ecc565b60209081029190910101525080610b2c81611f31565b915050610998565b50505050509250925092565b610b48611aba565b6107676000611b66565b610b5a611aba565b60008381526003602052604090206002015460ff16610b8b5760405162461bcd60e51b81526004016105aa90611e2a565b80610bd05760405162461bcd60e51b8152602060048201526015602482015274139bc81a5b9d995cdd1bdc9cc81c1c9bdd9a591959605a1b60448201526064016105aa565b6000838152600460205260409020546103e890610bee908390611e8a565b1115610c0c5760405162461bcd60e51b81526004016105aa90611f4a565b60005b81811015610d1a576000838383818110610c2b57610c2b611ecc565b9050602002016020810190610c409190611e0f565b90506001600160a01b03811615801590610c7d575060008581526005602090815260408083206001600160a01b038516845290915290205460ff16155b15610d075760008581526005602090815260408083206001600160a01b038516808552908352818420805460ff191660019081179091558985526004845282852080549182018155855292842090920180546001600160a01b0319168317905551909187917f1845098015cbb0e42a9b85a47f84551d36e882d04b64fa1ac8cf26ba40fd90139190a35b5080610d1281611f31565b915050610c0f565b50505050565b610d28611aba565b610767611bb6565b610d38611aba565b6001600160a01b038116610d8e5760405162461bcd60e51b815260206004820152601e60248201527f496e76616c696420746f6b656e20636f6e74726163742061646472657373000060448201526064016105aa565b60008281526003602052604090206002015460ff1615610df05760405162461bcd60e51b815260206004820152601b60248201527f50726f706572747920616c72656164792072656769737465726564000000000060448201526064016105aa565b60008211610e365760405162461bcd60e51b8152602060048201526013602482015272125b9d985b1a59081c1c9bdc195c9d1e481251606a1b60448201526064016105aa565b604080516060810182526001600160a01b038381168083526000602080850182815260018688018181528a85526003845293889020965187546001600160a01b03191696169590951786555193850193909355516002909301805460ff191693151593909317909255915190815283917ff16e2a0ca5373d3b3c5e53640bf2953ea25184f229ba20d421b5fc6a635e394591015b60405180910390a25050565b610ede611aba565b60008281526003602052604090206002015460ff16610f0f5760405162461bcd60e51b81526004016105aa90611e2a565b60008111610f5f5760405162461bcd60e51b815260206004820152601c60248201527f52656e7420616d6f756e74206d75737420626520706f7369746976650000000060448201526064016105aa565b68056bc75e2d63100000811115610faf5760405162461bcd60e51b81526020600482015260146024820152730a4cadce840c2dadeeadce840e8dede40d0d2ced60631b60448201526064016105aa565b600082815260036020526040908190206001018290555182907f8bf14a7393d7e12d5e2f6a83dbe5949d934527e062915569cc0397cc9fb38d4e90610eca9084815260200190565b610fff611aba565b60008281526003602052604090206002015460ff166110305760405162461bcd60e51b81526004016105aa90611e2a565b6001600160a01b0381166110865760405162461bcd60e51b815260206004820152601860248201527f496e76616c696420696e766573746f722061646472657373000000000000000060448201526064016105aa565b6000828152600460205260409020546103e8116110b55760405162461bcd60e51b81526004016105aa90611f4a565b60008281526005602090815260408083206001600160a01b038516845290915290205460ff166111645760008281526005602090815260408083206001600160a01b038516808552908352818420805460ff191660019081179091558685526004845282852080549182018155855292842090920180546001600160a01b0319168317905551909184917f1845098015cbb0e42a9b85a47f84551d36e882d04b64fa1ac8cf26ba40fd90139190a35b5050565b6111706118fd565b611178611956565b6000818152600360205260409020600281015460ff166111aa5760405162461bcd60e51b81526004016105aa90611e2a565b60008160010154116111fe5760405162461bcd60e51b815260206004820152601960248201527f52656e74206e6f742073657420666f722070726f70657274790000000000000060448201526064016105aa565b80600101543410156112525760405162461bcd60e51b815260206004820152601960248201527f496e73756666696369656e742072656e74207061796d656e740000000000000060448201526064016105aa565b6001810154611262906002611ee2565b3411156112b15760405162461bcd60e51b815260206004820152601860248201527f457863657373697665207061796d656e7420616d6f756e74000000000000000060448201526064016105aa565b60018101546000838152600460205260409020805461131e5760405162461bcd60e51b8152602060048201526024808201527f4e6f20696e766573746f7273207265676973746572656420666f722070726f706044820152636572747960e01b60648201526084016105aa565b80546103e810156113415760405162461bcd60e51b81526004016105aa90611f4a565b8254604080516318160ddd60e01b815290516001600160a01b039092169160009183916318160ddd916004808201926020929091908290030181865afa15801561138f573d6000803e3d6000fd5b505050506040513d601f19601f820116820180604052508101906113b39190611e9d565b9050600081116114015760405162461bcd60e51b81526020600482015260196024820152784e6f20746f6b656e20737570706c7920617661696c61626c6560381b60448201526064016105aa565b83600a60008282546114139190611e8a565b9091555050604051848152339087907f63e55317e25c0cab3a2de23ee0e244496daea0c1c2b8e272bbc01722b96bb9ae9060200160405180910390a3825460009067ffffffffffffffff81111561146c5761146c611eb6565b604051908082528060200260200182016040528015611495578160200160208202803683370190505b50845490915060009067ffffffffffffffff8111156114b6576114b6611eb6565b6040519080825280602002602001820160405280156114df578160200160208202803683370190505b50905060008060005b875481101561163357600088828154811061150557611505611ecc565b60009182526020822001546040516370a0823160e01b81526001600160a01b03918216600482018190529350908a16906370a0823190602401602060405180830381865afa15801561155b573d6000803e3d6000fd5b505050506040513d601f19601f8201168201806040525081019061157f9190611e9d565b905080600003611590575050611621565b878161271002816115a3576115a3611ef9565b048684815181106115b6576115b6611ecc565b60200260200101818152505087818c02816115d3576115d3611ef9565b048784815181106115e6576115e6611ecc565b60200260200101818152505086838151811061160457611604611ecc565b602002602001015185019450838061161b90611f31565b94505050505b8061162b81611f31565b9150506114e8565b5060005b87548110156117d657600085828151811061165457611654611ecc565b602002602001015190508060000361166c57506117c4565b600089838154811061168057611680611ecc565b60009182526020808320909101546001600160a01b03168083526006909152604082208054919350849290916116b7908490611e8a565b909155505060008d81526007602090815260408083206001600160a01b0385168452909152812080548492906116ee908490611e8a565b92505081905550806001600160a01b03168d7feb505b79a20bfa89068a88db591eab02e32a3aa24838c3948cbab9aa684a47428489878151811061173457611734611ecc565b6020026020010151604051611753929190918252602082015260400190565b60405180910390a3806001600160a01b03168d7fa9540cc46f5b676d5d197dee879b268a8f8f570e15a81098c2a9dbccb73ea6ed8489878151811061179a5761179a611ecc565b60200260200101516040516117b9929190918252602082015260400190565b60405180910390a350505b806117ce81611f31565b915050611637565b5081600b60008282546117e99190611e8a565b909155505060408051838152602081018390528b917f4b3d2fa7c486d847aaa08248b93b26c3398f7b94f1bf39a149406adad04a3f23910160405180910390a260006118358934611e77565b9050801561184757611847338261199c565b505050505050505050506106e860018055565b60008281526005602090815260408083206001600160a01b038516845290915290205460ff165b92915050565b61188f611aba565b6001600160a01b0381166118f45760405162461bcd60e51b815260206004820152602660248201527f4f776e61626c653a206e6577206f776e657220697320746865207a65726f206160448201526564647265737360d01b60648201526084016105aa565b6106e881611b66565b60026001540361194f5760405162461bcd60e51b815260206004820152601f60248201527f5265656e7472616e637947756172643a207265656e7472616e742063616c6c0060448201526064016105aa565b6002600155565b60025460ff16156107675760405162461bcd60e51b815260206004820152601060248201526f14185d5cd8589b194e881c185d5cd95960821b60448201526064016105aa565b804710156119ec5760405162461bcd60e51b815260206004820152601d60248201527f416464726573733a20696e73756666696369656e742062616c616e636500000060448201526064016105aa565b6000826001600160a01b03168260405160006040518083038185875af1925050503d8060008114611a39576040519150601f19603f3d011682016040523d82523d6000602084013e611a3e565b606091505b5050905080611ab55760405162461bcd60e51b815260206004820152603a60248201527f416464726573733a20756e61626c6520746f2073656e642076616c75652c207260448201527f6563697069656e74206d6179206861766520726576657274656400000000000060648201526084016105aa565b505050565b6000546001600160a01b031633146107675760405162461bcd60e51b815260206004820181905260248201527f4f776e61626c653a2063616c6c6572206973206e6f7420746865206f776e657260448201526064016105aa565b611b1c611bf3565b6002805460ff191690557f5db9ee0a495bf2e6ff9c91a7834c1ba4fdd244a5e8aa4e537bd38aeae4b073aa335b6040516001600160a01b03909116815260200160405180910390a1565b600080546001600160a01b038381166001600160a01b0319831681178455604051919092169283917f8be0079c531659141344cd1fd0a4f28419497f9722a3daafe3b4186f6b6457e09190a35050565b611bbe611956565b6002805460ff191660011790557f62e78cea01bee320cd4e420270b5ea74000d11b0c9f74754ebdbfc544b05a258611b493390565b60025460ff166107675760405162461bcd60e51b815260206004820152601460248201527314185d5cd8589b194e881b9bdd081c185d5cd95960621b60448201526064016105aa565b600060208284031215611c4e57600080fd5b5035919050565b600081518084526020808501945080840160005b83811015611c8e5781516001600160a01b031687529582019590820190600101611c69565b509495945050505050565b602081526000611cac6020830184611c55565b9392505050565b80356001600160a01b0381168114611cca57600080fd5b919050565b60008060408385031215611ce257600080fd5b82359150611cf260208401611cb3565b90509250929050565b60008060408385031215611d0e57600080fd5b50508035926020909101359150565b600081518084526020808501945080840160005b83811015611c8e57815187529582019590820190600101611d31565b606081526000611d606060830186611c55565b8281036020840152611d728186611d1d565b90508281036040840152611d868185611d1d565b9695505050505050565b600080600060408486031215611da557600080fd5b83359250602084013567ffffffffffffffff80821115611dc457600080fd5b818601915086601f830112611dd857600080fd5b813581811115611de757600080fd5b8760208260051b8501011115611dfc57600080fd5b6020830194508093505050509250925092565b600060208284031215611e2157600080fd5b611cac82611cb3565b60208082526017908201527f50726f7065727479206e6f742072656769737465726564000000000000000000604082015260600190565b634e487b7160e01b600052601160045260246000fd5b8181038181111561188157611881611e61565b8082018082111561188157611881611e61565b600060208284031215611eaf57600080fd5b5051919050565b634e487b7160e01b600052604160045260246000fd5b634e487b7160e01b600052603260045260246000fd5b808202811582820484141761188157611881611e61565b634e487b7160e01b600052601260045260246000fd5b600082611f2c57634e487b7160e01b600052601260045260246000fd5b500490565b600060018201611f4357611f43611e61565b5060010190565b602080825260129082015271546f6f206d616e7920696e766573746f727360701b60408201526060019056fea26469706673582212209865927d56cdf62956b2eee1a1b5f8d24acff5bac9089d0f498988627924bd0e64736f6c63430008140033",
  "linkReferences": {},
  "deployedLinkReferences": {}
}