{
  "_format": "hh-sol-artifact-1",
  "contractName": "RentalYieldDistributor",
  "sourceName": "contracts/RentalYieldDistributor.sol",
  "abi": [
    {
      "inputs": [
        {
          "internalType": "address",
          "name": "securityToken_",
          "type": "address"
        },
        {
          "internalType": "address",
          "name": "rentToken_",
          "type": "address"
        }
      ],
      "stateMutability": "nonpayable",
      "type": "constructor"
    },
    {
      "anonymous": false,
      "inputs": [
        {
          "indexed": true,
          "internalType": "address",
          "name": "previousOwner",
          "type": "address"
        },
        {
          "indexed": true,
          "internalType": "address",
          "name": "newOwner",
          "type": "address"
        }
      ],
      "name": "OwnershipTransferred",
      "type": "event"
    },
    {
      "anonymous": false,
      "inputs": [
        {
          "indexed": false,
          "internalType": "address",
          "name": "account",
          "type": "address"
        }
      ],
      "name": "Paused",
      "type": "event"
    },
    {
      "anonymous": false,
      "inputs": [
        {
          "indexed": true,
          "internalType": "address",
          "name": "account",
          "type": "address"
        },
        {
          "indexed": false,
          "internalType": "uint256",
          "name": "amount",
          "type": "uint256"
        }
      ],
      "name": "RentClaimed",
      "type": "event"
    },
    {
      "anonymous": false,
      "inputs": [
        {
          "indexed": true,
          "internalType": "address",
          "name": "from",
          "type": "address"
        },
        {
          "indexed": false,
          "internalType": "uint256",
          "name": "amount",
          "type": "uint256"
        }
      ],
      "name": "RentDeposited",
      "type": "event"
    },
    {
      "anonymous": false,
      "inputs": [
        {
          "indexed": false,
          "internalType": "address",
          "name": "account",
          "type": "address"
        }
      ],
      "name": "Unpaused",
      "type": "event"
    },
    {
      "inputs": [],
      "name": "accRentPerToken",
      "outputs": [
        {
          "internalType": "uint256",
          "name": "",
          "type": "uint256"
        }
      ],
      "stateMutability": "view",
      "type": "function"
    },
    {
      "inputs": [],
      "name": "claim",
      "outputs": [],
      "stateMutability": "nonpayable",
      "type": "function"
    },
    {
      "inputs": [
        {
          "internalType": "uint256",
          "name": "amount",
          "type": "uint256"
        }
      ],
      "name": "depositRent",
      "outputs": [],
      "stateMutability": "nonpayable",
      "type": "function"
    },
    {
      "inputs": [
        {
          "internalType": "address",
          "name": "from",
          "type": "address"
        },
        {
          "internalType": "address",
          "name": "to",
          "type": "address"
        },
        {
          "internalType": "uint256",
          "name": "amount",
          "type": "uint256"
        }
      ],
      "name": "onTokenTransfer",
      "outputs": [],
      "stateMutability": "nonpayable",
      "type": "function"
    },
    {
      "inputs": [],
      "name": "owner",
      "outputs": [
        {
          "internalType": "address",
          "name": "",
          "type": "address"
        }
      ],
      "stateMutability": "view",
      "type": "function"
    },
    {
      "inputs": [],
      "name": "pause",
      "outputs": [],
      "stateMutability": "nonpayable",
      "type": "function"
    },
    {
      "inputs": [],
      "name": "paused",
      "outputs": [
        {
          "internalType": "bool",
          "name": "",
          "type": "bool"
        }
      ],
      "stateMutability": "view",
      "type": "function"
    },
    {
      "inputs": [
        {
          "internalType": "address",
          "name": "",
          "type": "address"
        }
      ],
      "name": "pendingRewards",
      "outputs": [
        {
          "internalType": "uint256",
          "name": "",
          "type": "uint256"
        }
      ],
      "stateMutability": "view",
      "type": "function"
    },
    {
      "inputs": [],
      "name": "renounceOwnership",
      "outputs": [],
      "stateMutability": "nonpayable",
      "type": "function"
    },
    {
      "inputs": [],
      "name": "rentToken",
      "outputs": [
        {
          "internalType": "contract IERC20",
          "name": "",
          "type": "address"
        }
      ],
      "stateMutability": "view",
      "type": "function"
    },
    {
      "inputs": [
        {
          "internalType": "address",
          "name": "",
          "type": "address"
        }
      ],
      "name": "rewardDebt",
      "outputs": [
        {
          "internalType": "uint256",
          "name": "",
          "type": "uint256"
        }
      ],
      "stateMutability": "view",
      "type": "function"
    },
    {
      "inputs": [],
      "name": "securityToken",
      "outputs": [
        {
          "internalType": "contract IERC20",
          "name": "",
          "type": "address"
        }
      ],
      "stateMutability": "view",
      "type": "function"
    },
    {
      "inputs": [
        {
          "internalType": "address",
          "name": "newOwner",
          "type": "address"
        }
      ],
      "name": "transferOwnership",
      "outputs": [],
      "stateMutability": "nonpayable",
      "type": "function"
    },
    {
      "inputs": [],
      "name": "unpause",
      "outputs": [],
      "stateMutability": "nonpayable",
      "type": "function"
    }
  ],
  "bytecode": "0x60c060405234801561001057600080fd5b5060405161117f38038061117f83398101604081905261002f9161012b565b610038336100bf565b600180556002805460ff191690556001600160a01b0382161580159061006657506001600160a01b03811615155b6100a85760405162461bcd60e51b815260206004820152600f60248201526e696e76616c6964206164647265737360881b604482015260640160405180910390fd5b6001600160a01b039182166080521660a05261015e565b600080546001600160a01b038381166001600160a01b0319831681178455604051919092169283917f8be0079c531659141344cd1fd0a4f28419497f9722a3daafe3b4186f6b6457e09190a35050565b80516001600160a01b038116811461012657600080fd5b919050565b6000806040838503121561013e57600080fd5b6101478361010f565b91506101556020840161010f565b90509250929050565b60805160a051610fc46101bb600039600081816101c0015281816103ee015281816104f40152818161089501526109740152600081816101e701528181610269015281816105f7015281816107a60152610c180152610fc46000f3fe608060405234801561001057600080fd5b50600436106100ea5760003560e01c8063715018a61161008c578063a77db54f11610066578063a77db54f146101bb578063b84dfbd2146101e2578063f2fde38b14610209578063f6e96ced1461021c57600080fd5b8063715018a6146101865780638456cb591461018e5780638da5cb5b1461019657600080fd5b80635873eb9b116100c85780635873eb9b146101345780635c975abb14610154578063611a01e11461016a578063677ba3d31461017357600080fd5b806331d7a262146100ef5780633f4ba83a146101225780634e71d92d1461012c575b600080fd5b61010f6100fd366004610e61565b60056020526000908152604090205481565b6040519081526020015b60405180910390f35b61012a61022f565b005b61012a610241565b61010f610142366004610e61565b60046020526000908152604090205481565b60025460ff166040519015158152602001610119565b61010f60035481565b61012a610181366004610e83565b6105ec565b61012a61069f565b61012a6106b1565b6000546001600160a01b03165b6040516001600160a01b039091168152602001610119565b6101a37f000000000000000000000000000000000000000000000000000000000000000081565b6101a37f000000000000000000000000000000000000000000000000000000000000000081565b61012a610217366004610e61565b6106c1565b61012a61022a366004610ebf565b61073a565b610237610aab565b61023f610b05565b565b610249610b57565b610251610bb0565b6040516370a0823160e01b81523360048201526000907f00000000000000000000000000000000000000000000000000000000000000006001600160a01b0316906370a0823190602401602060405180830381865afa1580156102b8573d6000803e3d6000fd5b505050506040513d601f19601f820116820180604052508101906102dc9190610ed8565b9050600081116103255760405162461bcd60e51b815260206004820152600f60248201526e139bc81d1bdad95b9cc81bdddb9959608a1b60448201526064015b60405180910390fd5b6000670de0b6b3a76400006003548361033e9190610f07565b6103489190610f24565b33600090815260046020526040812054919250906103669083610f46565b3360009081526005602052604081205491925090610385908390610f59565b9050600081116103d75760405162461bcd60e51b815260206004820152601d60248201527f4e6f207265776172647320617661696c61626c6520746f20636c61696d000000604482015260640161031c565b6040516370a0823160e01b815230600482015281907f00000000000000000000000000000000000000000000000000000000000000006001600160a01b0316906370a0823190602401602060405180830381865afa15801561043d573d6000803e3d6000fd5b505050506040513d601f19601f820116820180604052508101906104619190610ed8565b10156104af5760405162461bcd60e51b815260206004820152601d60248201527f496e73756666696369656e7420636f6e74726163742062616c616e6365000000604482015260640161031c565b3360008181526005602090815260408083208390556004918290528083208790555163a9059cbb60e01b81529081019290925260248201839052906001600160a01b037f0000000000000000000000000000000000000000000000000000000000000000169063a9059cbb906044016020604051808303816000875af115801561053d573d6000803e3d6000fd5b505050506040513d601f19601f820116820180604052508101906105619190610f6c565b9050806105a95760405162461bcd60e51b815260206004820152601660248201527514995dd85c99081d1c985b9cd9995c8819985a5b195960521b604482015260640161031c565b60405182815233907f70d7b7410abe774750abf422fdba0ea57eb08e1de4c2f120ed398156a2a70ad69060200160405180910390a2505050505061023f60018055565b336001600160a01b037f000000000000000000000000000000000000000000000000000000000000000016146106645760405162461bcd60e51b815260206004820152601c60248201527f4f6e6c7920736563757269747920746f6b656e2063616e2063616c6c00000000604482015260640161031c565b6001600160a01b0383161561067f5761067f83826001610bf6565b6001600160a01b0382161561069a5761069a82826000610bf6565b505050565b6106a7610aab565b61023f6000610d6f565b6106b9610aab565b61023f610dbf565b6106c9610aab565b6001600160a01b03811661072e5760405162461bcd60e51b815260206004820152602660248201527f4f776e61626c653a206e6577206f776e657220697320746865207a65726f206160448201526564647265737360d01b606482015260840161031c565b61073781610d6f565b50565b610742610aab565b61074a610b57565b610752610bb0565b600081116107a25760405162461bcd60e51b815260206004820152601f60248201527f4465706f73697420616d6f756e74206d75737420626520706f73697469766500604482015260640161031c565b60007f00000000000000000000000000000000000000000000000000000000000000006001600160a01b03166318160ddd6040518163ffffffff1660e01b8152600401602060405180830381865afa158015610802573d6000803e3d6000fd5b505050506040513d601f19601f820116820180604052508101906108269190610ed8565b9050600081116108785760405162461bcd60e51b815260206004820152601960248201527f4e6f20746f6b656e20737570706c7920617661696c61626c6500000000000000604482015260640161031c565b604051636eb1769f60e11b815233600482015230602482015282907f00000000000000000000000000000000000000000000000000000000000000006001600160a01b03169063dd62ed3e90604401602060405180830381865afa1580156108e4573d6000803e3d6000fd5b505050506040513d601f19601f820116820180604052508101906109089190610ed8565b101561094f5760405162461bcd60e51b8152602060048201526016602482015275496e73756666696369656e7420616c6c6f77616e636560501b604482015260640161031c565b6040516323b872dd60e01b8152336004820152306024820152604481018390526000907f00000000000000000000000000000000000000000000000000000000000000006001600160a01b0316906323b872dd906064016020604051808303816000875af11580156109c5573d6000803e3d6000fd5b505050506040513d601f19601f820116820180604052508101906109e99190610f6c565b905080610a385760405162461bcd60e51b815260206004820152601a60248201527f52656e7420746f6b656e207472616e73666572206661696c6564000000000000604482015260640161031c565b81610a4b84670de0b6b3a7640000610f07565b610a559190610f24565b60036000828254610a669190610f59565b909155505060405183815233907f797a02c7d16c4146ec5cfc26993c4191b92c66481ef2967ea41aff8c8d3c570c9060200160405180910390a2505061073760018055565b6000546001600160a01b0316331461023f5760405162461bcd60e51b815260206004820181905260248201527f4f776e61626c653a2063616c6c6572206973206e6f7420746865206f776e6572604482015260640161031c565b610b0d610dfc565b6002805460ff191690557f5db9ee0a495bf2e6ff9c91a7834c1ba4fdd244a5e8aa4e537bd38aeae4b073aa335b6040516001600160a01b03909116815260200160405180910390a1565b600260015403610ba95760405162461bcd60e51b815260206004820152601f60248201527f5265656e7472616e637947756172643a207265656e7472616e742063616c6c00604482015260640161031c565b6002600155565b60025460ff161561023f5760405162461bcd60e51b815260206004820152601060248201526f14185d5cd8589b194e881c185d5cd95960821b604482015260640161031c565b6040516370a0823160e01b81526001600160a01b0384811660048301526000917f0000000000000000000000000000000000000000000000000000000000000000909116906370a0823190602401602060405180830381865afa158015610c61573d6000803e3d6000fd5b505050506040513d601f19601f82011682018060405250810190610c859190610ed8565b9050600082610c9d57610c988483610f46565b610ca7565b610ca78483610f59565b90506000670de0b6b3a764000060035483610cc29190610f07565b610ccc9190610f24565b6001600160a01b03871660009081526004602052604081205491925090610cf39083610f46565b90508015610d29576001600160a01b03871660009081526005602052604081208054839290610d23908490610f59565b90915550505b670de0b6b3a764000060035485610d409190610f07565b610d4a9190610f24565b6001600160a01b03909716600090815260046020526040902096909655505050505050565b600080546001600160a01b038381166001600160a01b0319831681178455604051919092169283917f8be0079c531659141344cd1fd0a4f28419497f9722a3daafe3b4186f6b6457e09190a35050565b610dc7610bb0565b6002805460ff191660011790557f62e78cea01bee320cd4e420270b5ea74000d11b0c9f74754ebdbfc544b05a258610b3a3390565b60025460ff1661023f5760405162461bcd60e51b815260206004820152601460248201527314185d5cd8589b194e881b9bdd081c185d5cd95960621b604482015260640161031c565b80356001600160a01b0381168114610e5c57600080fd5b919050565b600060208284031215610e7357600080fd5b610e7c82610e45565b9392505050565b600080600060608486031215610e9857600080fd5b610ea184610e45565b9250610eaf60208501610e45565b9150604084013590509250925092565b600060208284031215610ed157600080fd5b5035919050565b600060208284031215610eea57600080fd5b5051919050565b634e487b7160e01b600052601160045260246000fd5b8082028115828204841417610f1e57610f1e610ef1565b92915050565b600082610f4157634e487b7160e01b600052601260045260246000fd5b500490565b81810381811115610f1e57610f1e610ef1565b80820180821115610f1e57610f1e610ef1565b600060208284031215610f7e57600080fd5b81518015158114610e7c57600080fdfea2646970667358221220bb6ddc878ed7a095386400906954832f2cfe36a84d352c18b1a19c2f8ba17b1664736f6c63430008140033",
  "linkReferences": {},
  "deployedLinkReferences": {}
}