{
  "_format": "hh-sol-artifact-1",
  "contractName": "Escrow",
  "sourceName": "contracts/Escrow.sol",
  "abi": [
    {
      "anonymous": false,
      "inputs": [
        {
          "indexed": true,
          "internalType": "uint256",
          "name": "dealId",
          "type": "uint256"
        },
        {
          "indexed": true,
          "internalType": "address",
          "name": "payer",
          "type": "address"
        },
        {
          "indexed": true,
          "internalType": "address",
          "name": "payee",
          "type": "address"
        },
        {
          "indexed": false,
          "internalType": "uint256",
          "name": "amount",
          "type": "uint256"
        }
      ],
      "name": "DealCreated",
      "type": "event"
    },
    {
      "anonymous": false,
      "inputs": [
        {
          "indexed": true,
          "internalType": "uint256",
          "name": "dealId",
          "type": "uint256"
        },
        {
          "indexed": false,
          "internalType": "uint256",
          "name": "amount",
          "type": "uint256"
        }
      ],
      "name": "Deposited",
      "type": "event"
    },
    {
      "anonymous": false,
      "inputs": [
        {
          "indexed": true,
          "internalType": "address",
          "name": "previousOwner",
          "type": "address"
        },
        {
          "indexed": true,
          "internalType": "address",
          "name": "newOwner",
          "type": "address"
        }
      ],
      "name": "OwnershipTransferred",
      "type": "event"
    },
    {
      "anonymous": false,
      "inputs": [
        {
          "indexed": false,
          "internalType": "address",
          "name": "account",
          "type": "address"
        }
      ],
      "name": "Paused",
      "type": "event"
    },
    {
      "anonymous": false,
      "inputs": [
        {
          "indexed": true,
          "internalType": "uint256",
          "name": "dealId",
          "type": "uint256"
        }
      ],
      "name": "Refunded",
      "type": "event"
    },
    {
      "anonymous": false,
      "inputs": [
        {
          "indexed": true,
          "internalType": "uint256",
          "name": "dealId",
          "type": "uint256"
        }
      ],
      "name": "Released",
      "type": "event"
    },
    {
      "anonymous": false,
      "inputs": [
        {
          "indexed": false,
          "internalType": "address",
          "name": "account",
          "type": "address"
        }
      ],
      "name": "Unpaused",
      "type": "event"
    },
    {
      "inputs": [
        {
          "internalType": "address",
          "name": "payer",
          "type": "address"
        },
        {
          "internalType": "address",
          "name": "payee",
          "type": "address"
        },
        {
          "internalType": "uint256",
          "name": "amount",
          "type": "uint256"
        }
      ],
      "name": "createDeal",
      "outputs": [
        {
          "internalType": "uint256",
          "name": "",
          "type": "uint256"
        }
      ],
      "stateMutability": "nonpayable",
      "type": "function"
    },
    {
      "inputs": [],
      "name": "dealCounter",
      "outputs": [
        {
          "internalType": "uint256",
          "name": "",
          "type": "uint256"
        }
      ],
      "stateMutability": "view",
      "type": "function"
    },
    {
      "inputs": [
        {
          "internalType": "uint256",
          "name": "",
          "type": "uint256"
        }
      ],
      "name": "deals",
      "outputs": [
        {
          "internalType": "address",
          "name": "payer",
          "type": "address"
        },
        {
          "internalType": "address",
          "name": "payee",
          "type": "address"
        },
        {
          "internalType": "uint256",
          "name": "amount",
          "type": "uint256"
        },
        {
          "internalType": "bool",
          "name": "deposited",
          "type": "bool"
        },
        {
          "internalType": "bool",
          "name": "released",
          "type": "bool"
        },
        {
          "internalType": "bool",
          "name": "refunded",
          "type": "bool"
        }
      ],
      "stateMutability": "view",
      "type": "function"
    },
    {
      "inputs": [
        {
          "internalType": "uint256",
          "name": "dealId",
          "type": "uint256"
        }
      ],
      "name": "deposit",
      "outputs": [],
      "stateMutability": "payable",
      "type": "function"
    },
    {
      "inputs": [],
      "name": "owner",
      "outputs": [
        {
          "internalType": "address",
          "name": "",
          "type": "address"
        }
      ],
      "stateMutability": "view",
      "type": "function"
    },
    {
      "inputs": [],
      "name": "pause",
      "outputs": [],
      "stateMutability": "nonpayable",
      "type": "function"
    },
    {
      "inputs": [],
      "name": "paused",
      "outputs": [
        {
          "internalType": "bool",
          "name": "",
          "type": "bool"
        }
      ],
      "stateMutability": "view",
      "type": "function"
    },
    {
      "inputs": [
        {
          "internalType": "uint256",
          "name": "dealId",
          "type": "uint256"
        }
      ],
      "name": "refund",
      "outputs": [],
      "stateMutability": "nonpayable",
      "type": "function"
    },
    {
      "inputs": [
        {
          "internalType": "uint256",
          "name": "dealId",
          "type": "uint256"
        }
      ],
      "name": "release",
      "outputs": [],
      "stateMutability": "nonpayable",
      "type": "function"
    },
    {
      "inputs": [],
      "name": "renounceOwnership",
      "outputs": [],
      "stateMutability": "nonpayable",
      "type": "function"
    },
    {
      "inputs": [
        {
          "internalType": "address",
          "name": "newOwner",
          "type": "address"
        }
      ],
      "name": "transferOwnership",
      "outputs": [],
      "stateMutability": "nonpayable",
      "type": "function"
    },
    {
      "inputs": [],
      "name": "unpause",
      "outputs": [],
      "stateMutability": "nonpayable",
      "type": "function"
    }
  ],
  "bytecode": "0x608060405234801561001057600080fd5b5061001a3361002d565b600180556002805460ff1916905561007d565b600080546001600160a01b038381166001600160a01b0319831681178455604051919092169283917f8be0079c531659141344cd1fd0a4f28419497f9722a3daafe3b4186f6b6457e09190a35050565b610d888061008c6000396000f3fe6080604052600436106100a75760003560e01c8063715018a611610064578063715018a6146101f25780638456cb59146102075780638da5cb5b1461021c578063a2cd415814610244578063b6b55f2514610264578063f2fde38b1461027757600080fd5b806303988f84146100ac578063217328b614610154578063278ecde11461017857806337bdc99b1461019a5780633f4ba83a146101ba5780635c975abb146101cf575b600080fd5b3480156100b857600080fd5b506101116100c7366004610c98565b60046020526000908152604090208054600182015460028301546003909301546001600160a01b0392831693919092169160ff808216916101008104821691620100009091041686565b604080516001600160a01b039788168152969095166020870152938501929092521515606084015215156080830152151560a082015260c0015b60405180910390f35b34801561016057600080fd5b5061016a60035481565b60405190815260200161014b565b34801561018457600080fd5b50610198610193366004610c98565b610297565b005b3480156101a657600080fd5b506101986101b5366004610c98565b6103ec565b3480156101c657600080fd5b5061019861053d565b3480156101db57600080fd5b5060025460ff16604051901515815260200161014b565b3480156101fe57600080fd5b5061019861054f565b34801561021357600080fd5b50610198610561565b34801561022857600080fd5b506000546040516001600160a01b03909116815260200161014b565b34801561025057600080fd5b5061016a61025f366004610ccd565b610571565b610198610272366004610c98565b610732565b34801561028357600080fd5b50610198610292366004610d09565b6108e3565b61029f610959565b6102a76109b3565b6102af610a0c565b6000818152600460205260409020600381015460ff1680156102db57506003810154610100900460ff16155b80156102f25750600381015462010000900460ff16155b6103385760405162461bcd60e51b8152602060048201526012602482015271496e76616c6964206465616c20737461746560701b60448201526064015b60405180910390fd5b80546001600160a01b03166103875760405162461bcd60e51b8152602060048201526015602482015274496e76616c6964207061796572206164647265737360581b604482015260640161032f565b60038101805462ff0000191662010000179055805460028201546103b4916001600160a01b031690610a52565b60405182907f3d2a04f53164bedf9a8a46353305d6b2d2261410406df3b41f99ce6489dc003c90600090a2506103e960018055565b50565b6103f4610959565b6103fc6109b3565b610404610a0c565b6000818152600460205260409020600381015460ff16801561043057506003810154610100900460ff16155b80156104475750600381015462010000900460ff16155b6104885760405162461bcd60e51b8152602060048201526012602482015271496e76616c6964206465616c20737461746560701b604482015260640161032f565b60018101546001600160a01b03166104da5760405162461bcd60e51b8152602060048201526015602482015274496e76616c6964207061796565206164647265737360581b604482015260640161032f565b60038101805461ff00191661010017905560018101546002820154610508916001600160a01b031690610a52565b60405182907ffb81f9b30d73d830c3544b34d827c08142579ee75710b490bab0b3995468c56590600090a2506103e960018055565b610545610959565b61054d610b70565b565b610557610959565b61054d6000610bc2565b610569610959565b61054d610c12565b600061057b610959565b6001600160a01b0384161580159061059b57506001600160a01b03831615155b6105d95760405162461bcd60e51b815260206004820152600f60248201526e696e76616c6964206164647265737360881b604482015260640161032f565b600082116106145760405162461bcd60e51b81526020600482015260086024820152670616d6f756e7420360c41b604482015260640161032f565b6001600360008282546106279190610d2b565b90915550506040805160c0810182526001600160a01b0386811680835286821660208085018281528587018981526000606088018181526080890182815260a08a0183815260038054855260048852938c90209a518b546001600160a01b0319908116918c16919091178c55955160018c0180549097169a169990991790945591516002890155905196810180549251965161ffff1990931697151561ff00191697909717610100961515969096029590951762ff00001916620100009115159190910217909455915493518681529193909290917fa1d51600bc538356bf8fd92c062edd8551d8ebffa6933a434365fbb0b2b6eb48910160405180910390a4506003549392505050565b61073a6109b3565b610742610a0c565b600081815260046020526040902080546001600160a01b031633146107a25760405162461bcd60e51b815260206004820152601660248201527513db9b1e481c185e595c8818d85b8819195c1bdcda5d60521b604482015260640161032f565b600381015460ff16156107eb5760405162461bcd60e51b8152602060048201526011602482015270105b1c9958591e4819195c1bdcda5d1959607a1b604482015260640161032f565b8060020154341461083e5760405162461bcd60e51b815260206004820152601860248201527f496e636f7272656374206465706f73697420616d6f756e740000000000000000604482015260640161032f565b6000341161088e5760405162461bcd60e51b815260206004820152601f60248201527f4465706f73697420616d6f756e74206d75737420626520706f73697469766500604482015260640161032f565b60038101805460ff1916600117905560405182907f06da3309189fa49284f335d2c2bcb4cb0b8ad2a59ad92a9bdebeeb8f1ceba511906108d19034815260200190565b60405180910390a2506103e960018055565b6108eb610959565b6001600160a01b0381166109505760405162461bcd60e51b815260206004820152602660248201527f4f776e61626c653a206e6577206f776e657220697320746865207a65726f206160448201526564647265737360d01b606482015260840161032f565b6103e981610bc2565b6000546001600160a01b0316331461054d5760405162461bcd60e51b815260206004820181905260248201527f4f776e61626c653a2063616c6c6572206973206e6f7420746865206f776e6572604482015260640161032f565b600260015403610a055760405162461bcd60e51b815260206004820152601f60248201527f5265656e7472616e637947756172643a207265656e7472616e742063616c6c00604482015260640161032f565b6002600155565b60025460ff161561054d5760405162461bcd60e51b815260206004820152601060248201526f14185d5cd8589b194e881c185d5cd95960821b604482015260640161032f565b80471015610aa25760405162461bcd60e51b815260206004820152601d60248201527f416464726573733a20696e73756666696369656e742062616c616e6365000000604482015260640161032f565b6000826001600160a01b03168260405160006040518083038185875af1925050503d8060008114610aef576040519150601f19603f3d011682016040523d82523d6000602084013e610af4565b606091505b5050905080610b6b5760405162461bcd60e51b815260206004820152603a60248201527f416464726573733a20756e61626c6520746f2073656e642076616c75652c207260448201527f6563697069656e74206d61792068617665207265766572746564000000000000606482015260840161032f565b505050565b610b78610c4f565b6002805460ff191690557f5db9ee0a495bf2e6ff9c91a7834c1ba4fdd244a5e8aa4e537bd38aeae4b073aa335b6040516001600160a01b03909116815260200160405180910390a1565b600080546001600160a01b038381166001600160a01b0319831681178455604051919092169283917f8be0079c531659141344cd1fd0a4f28419497f9722a3daafe3b4186f6b6457e09190a35050565b610c1a610a0c565b6002805460ff191660011790557f62e78cea01bee320cd4e420270b5ea74000d11b0c9f74754ebdbfc544b05a258610ba53390565b60025460ff1661054d5760405162461bcd60e51b815260206004820152601460248201527314185d5cd8589b194e881b9bdd081c185d5cd95960621b604482015260640161032f565b600060208284031215610caa57600080fd5b5035919050565b80356001600160a01b0381168114610cc857600080fd5b919050565b600080600060608486031215610ce257600080fd5b610ceb84610cb1565b9250610cf960208501610cb1565b9150604084013590509250925092565b600060208284031215610d1b57600080fd5b610d2482610cb1565b9392505050565b80820180821115610d4c57634e487b7160e01b600052601160045260246000fd5b9291505056fea2646970667358221220d84c7e6e7fda43565a440557de034bc6194f6a35684116f989c2e50c161062f464736f6c63430008140033",
  "linkReferences": {},
  "deployedLinkReferences": {}
}