{
  "_format": "hh-sol-artifact-1",
  "contractName": "SecurityToken",
  "sourceName": "contracts/SecurityToken.sol",
  "abi": [
    {
      "inputs": [
        {
          "internalType": "uint256",
          "name": "propertyId_",
          "type": "uint256"
        },
        {
          "internalType": "string",
          "name": "name_",
          "type": "string"
        },
        {
          "internalType": "string",
          "name": "symbol_",
          "type": "string"
        },
        {
          "internalType": "uint256",
          "name": "salePricePerTokenWei_",
          "type": "uint256"
        }
      ],
      "stateMutability": "nonpayable",
      "type": "constructor"
    },
    {
      "anonymous": false,
      "inputs": [
        {
          "indexed": true,
          "internalType": "address",
          "name": "owner",
          "type": "address"
        },
        {
          "indexed": true,
          "internalType": "address",
          "name": "spender",
          "type": "address"
        },
        {
          "indexed": false,
          "internalType": "uint256",
          "name": "value",
          "type": "uint256"
        }
      ],
      "name": "Approval",
      "type": "event"
    },
    {
      "anonymous": false,
      "inputs": [
        {
          "indexed": true,
          "internalType": "address",
          "name": "distributor",
          "type": "address"
        }
      ],
      "name": "DistributorUpdated",
      "type": "event"
    },
    {
      "anonymous": false,
      "inputs": [
        {
          "indexed": true,
          "internalType": "address",
          "name": "investor",
          "type": "address"
        },
        {
          "indexed": true,
          "internalType": "uint256",
          "name": "propertyId",
          "type": "uint256"
        },
        {
          "indexed": false,
          "internalType": "uint256",
          "name": "tokenAmount",
          "type": "uint256"
        },
        {
          "indexed": false,
          "internalType": "uint256",
          "name": "ethSpent",
          "type": "uint256"
        }
      ],
      "name": "InvestmentCompleted",
      "type": "event"
    },
    {
      "anonymous": false,
      "inputs": [
        {
          "indexed": true,
          "internalType": "address",
          "name": "previousOwner",
          "type": "address"
        },
        {
          "indexed": true,
          "internalType": "address",
          "name": "newOwner",
          "type": "address"
        }
      ],
      "name": "OwnershipTransferred",
      "type": "event"
    },
    {
      "anonymous": false,
      "inputs": [
        {
          "indexed": false,
          "internalType": "address",
          "name": "account",
          "type": "address"
        }
      ],
      "name": "Paused",
      "type": "event"
    },
    {
      "anonymous": false,
      "inputs": [
        {
          "indexed": true,
          "internalType": "address",
          "name": "to",
          "type": "address"
        },
        {
          "indexed": false,
          "internalType": "uint256",
          "name": "amount",
          "type": "uint256"
        }
      ],
      "name": "TokensMinted",
      "type": "event"
    },
    {
      "anonymous": false,
      "inputs": [
        {
          "indexed": true,
          "internalType": "address",
          "name": "from",
          "type": "address"
        },
        {
          "indexed": true,
          "internalType": "address",
          "name": "to",
          "type": "address"
        },
        {
          "indexed": false,
          "internalType": "uint256",
          "name": "value",
          "type": "uint256"
        }
      ],
      "name": "Transfer",
      "type": "event"
    },
    {
      "anonymous": false,
      "inputs": [
        {
          "indexed": false,
          "internalType": "address",
          "name": "account",
          "type": "address"
        }
      ],
      "name": "Unpaused",
      "type": "event"
    },
    {
      "anonymous": false,
      "inputs": [
        {
          "indexed": true,
          "internalType": "address",
          "name": "account",
          "type": "address"
        },
        {
          "indexed": false,
          "internalType": "bool",
          "name": "approved",
          "type": "bool"
        }
      ],
      "name": "WhitelistUpdated",
      "type": "event"
    },
    {
      "inputs": [
        {
          "internalType": "address",
          "name": "owner",
          "type": "address"
        },
        {
          "internalType": "address",
          "name": "spender",
          "type": "address"
        }
      ],
      "name": "allowance",
      "outputs": [
        {
          "internalType": "uint256",
          "name": "",
          "type": "uint256"
        }
      ],
      "stateMutability": "view",
      "type": "function"
    },
    {
      "inputs": [
        {
          "internalType": "address",
          "name": "spender",
          "type": "address"
        },
        {
          "internalType": "uint256",
          "name": "amount",
          "type": "uint256"
        }
      ],
      "name": "approve",
      "outputs": [
        {
          "internalType": "bool",
          "name": "",
          "type": "bool"
        }
      ],
      "stateMutability": "nonpayable",
      "type": "function"
    },
    {
      "inputs": [
        {
          "internalType": "address",
          "name": "account",
          "type": "address"
        }
      ],
      "name": "balanceOf",
      "outputs": [
        {
          "internalType": "uint256",
          "name": "",
          "type": "uint256"
        }
      ],
      "stateMutability": "view",
      "type": "function"
    },
    {
      "inputs": [],
      "name": "decimals",
      "outputs": [
        {
          "internalType": "uint8",
          "name": "",
          "type": "uint8"
        }
      ],
      "stateMutability": "view",
      "type": "function"
    },
    {
      "inputs": [
        {
          "internalType": "address",
          "name": "spender",
          "type": "address"
        },
        {
          "internalType": "uint256",
          "name": "subtractedValue",
          "type": "uint256"
        }
      ],
      "name": "decreaseAllowance",
      "outputs": [
        {
          "internalType": "bool",
          "name": "",
          "type": "bool"
        }
      ],
      "stateMutability": "nonpayable",
      "type": "function"
    },
    {
      "inputs": [],
      "name": "distributor",
      "outputs": [
        {
          "internalType": "address",
          "name": "",
          "type": "address"
        }
      ],
      "stateMutability": "view",
      "type": "function"
    },
    {
      "inputs": [
        {
          "internalType": "address",
          "name": "spender",
          "type": "address"
        },
        {
          "internalType": "uint256",
          "name": "addedValue",
          "type": "uint256"
        }
      ],
      "name": "increaseAllowance",
      "outputs": [
        {
          "internalType": "bool",
          "name": "",
          "type": "bool"
        }
      ],
      "stateMutability": "nonpayable",
      "type": "function"
    },
    {
      "inputs": [
        {
          "internalType": "uint256",
          "name": "propertyId_",
          "type": "uint256"
        },
        {
          "internalType": "uint256",
          "name": "tokenAmount",
          "type": "uint256"
        }
      ],
      "name": "invest",
      "outputs": [],
      "stateMutability": "payable",
      "type": "function"
    },
    {
      "inputs": [
        {
          "internalType": "address",
          "name": "to",
          "type": "address"
        },
        {
          "internalType": "uint256",
          "name": "amount",
          "type": "uint256"
        }
      ],
      "name": "mint",
      "outputs": [],
      "stateMutability": "nonpayable",
      "type": "function"
    },
    {
      "inputs": [],
      "name": "name",
      "outputs": [
        {
          "internalType": "string",
          "name": "",
          "type": "string"
        }
      ],
      "stateMutability": "view",
      "type": "function"
    },
    {
      "inputs": [],
      "name": "owner",
      "outputs": [
        {
          "internalType": "address",
          "name": "",
          "type": "address"
        }
      ],
      "stateMutability": "view",
      "type": "function"
    },
    {
      "inputs": [],
      "name": "pause",
      "outputs": [],
      "stateMutability": "nonpayable",
      "type": "function"
    },
    {
      "inputs": [],
      "name": "paused",
      "outputs": [
        {
          "internalType": "bool",
          "name": "",
          "type": "bool"
        }
      ],
      "stateMutability": "view",
      "type": "function"
    },
    {
      "inputs": [],
      "name": "propertyId",
      "outputs": [
        {
          "internalType": "uint256",
          "name": "",
          "type": "uint256"
        }
      ],
      "stateMutability": "view",
      "type": "function"
    },
    {
      "inputs": [],
      "name": "renounceOwnership",
      "outputs": [],
      "stateMutability": "nonpayable",
      "type": "function"
    },
    {
      "inputs": [],
      "name": "salePricePerTokenWei",
      "outputs": [
        {
          "internalType": "uint256",
          "name": "",
          "type": "uint256"
        }
      ],
      "stateMutability": "view",
      "type": "function"
    },
    {
      "inputs": [
        {
          "internalType": "address",
          "name": "distributor_",
          "type": "address"
        }
      ],
      "name": "setDistributor",
      "outputs": [],
      "stateMutability": "nonpayable",
      "type": "function"
    },
    {
      "inputs": [
        {
          "internalType": "address",
          "name": "account",
          "type": "address"
        },
        {
          "internalType": "bool",
          "name": "approved",
          "type": "bool"
        }
      ],
      "name": "setWhitelisted",
      "outputs": [],
      "stateMutability": "nonpayable",
      "type": "function"
    },
    {
      "inputs": [],
      "name": "symbol",
      "outputs": [
        {
          "internalType": "string",
          "name": "",
          "type": "string"
        }
      ],
      "stateMutability": "view",
      "type": "function"
    },
    {
      "inputs": [],
      "name": "totalSupply",
      "outputs": [
        {
          "internalType": "uint256",
          "name": "",
          "type": "uint256"
        }
      ],
      "stateMutability": "view",
      "type": "function"
    },
    {
      "inputs": [
        {
          "internalType": "address",
          "name": "to",
          "type": "address"
        },
        {
          "internalType": "uint256",
          "name": "amount",
          "type": "uint256"
        }
      ],
      "name": "transfer",
      "outputs": [
        {
          "internalType": "bool",
          "name": "",
          "type": "bool"
        }
      ],
      "stateMutability": "nonpayable",
      "type": "function"
    },
    {
      "inputs": [
        {
          "internalType": "address",
          "name": "from",
          "type": "address"
        },
        {
          "internalType": "address",
          "name": "to",
          "type": "address"
        },
        {
          "internalType": "uint256",
          "name": "amount",
          "type": "uint256"
        }
      ],
      "name": "transferFrom",
      "outputs": [
        {
          "internalType": "bool",
          "name": "",
          "type": "bool"
        }
      ],
      "stateMutability": "nonpayable",
      "type": "function"
    },
    {
      "inputs": [
        {
          "internalType": "address",
          "name": "newOwner",
          "type": "address"
        }
      ],
      "name": "transferOwnership",
      "outputs": [],
      "stateMutability": "nonpayable",
      "type": "function"
    },
    {
      "inputs": [],
      "name": "unpause",
      "outputs": [],
      "stateMutability": "nonpayable",
      "type": "function"
    },
    {
      "inputs": [
        {
          "internalType": "address",
          "name": "",
          "type": "address"
        }
      ],
      "name": "whitelist",
      "outputs": [
        {
          "internalType": "bool",
          "name": "",
          "type": "bool"
        }
      ],
      "stateMutability": "view",
      "type": "function"
    }
  ],
  "bytecode": "0x60c06040523480156200001157600080fd5b5060405162001c4338038062001c438339810160408190526200003491620001ab565b82826003620000448382620002b6565b506004620000538282620002b6565b505050620000706200006a6200009060201b60201c565b62000094565b60016006556007805460ff19169055608093909352505060a05262000382565b3390565b600580546001600160a01b038381166001600160a01b0319831681179093556040519116919082907f8be0079c531659141344cd1fd0a4f28419497f9722a3daafe3b4186f6b6457e090600090a35050565b634e487b7160e01b600052604160045260246000fd5b600082601f8301126200010e57600080fd5b81516001600160401b03808211156200012b576200012b620000e6565b604051601f8301601f19908116603f01168101908282118183101715620001565762000156620000e6565b816040528381526020925086838588010111156200017357600080fd5b600091505b8382101562000197578582018301518183018401529082019062000178565b600093810190920192909252949350505050565b60008060008060808587031215620001c257600080fd5b845160208601519094506001600160401b0380821115620001e257600080fd5b620001f088838901620000fc565b945060408701519150808211156200020757600080fd5b506200021687828801620000fc565b606096909601519497939650505050565b600181811c908216806200023c57607f821691505b6020821081036200025d57634e487b7160e01b600052602260045260246000fd5b50919050565b601f821115620002b157600081815260208120601f850160051c810160208610156200028c5750805b601f850160051c820191505b81811015620002ad5782815560010162000298565b5050505b505050565b81516001600160401b03811115620002d257620002d2620000e6565b620002ea81620002e3845462000227565b8462000263565b602080601f831160018114620003225760008415620003095750858301515b600019600386901b1c1916600185901b178555620002ad565b600085815260208120601f198616915b82811015620003535788860151825594840194600190910190840162000332565b5085821015620003725787850151600019600388901b60f8161c191681555b5050505050600190811b01905550565b60805160a05161188d620003b66000396000818161030d0152610a1001526000818161048001526108f4015261188d6000f3fe6080604052600436106101665760003560e01c80637c1aa5e6116100d1578063a457c2d71161008a578063d87aa64311610064578063d87aa6431461043b578063dd62ed3e1461044e578063ee7a3b8e1461046e578063f2fde38b146104a257600080fd5b8063a457c2d7146103db578063a9059cbb146103fb578063bfe109281461041b57600080fd5b80637c1aa5e6146102fb5780638456cb591461032f5780638da5cb5b146103445780639281aa0b1461037657806395d89b41146103965780639b19251a146103ab57600080fd5b80633f4ba83a116101235780633f4ba83a1461024157806340c10f19146102585780635c975abb1461027857806370a0823114610290578063715018a6146102c657806375619ab5146102db57600080fd5b806306fdde031461016b578063095ea7b31461019657806318160ddd146101c657806323b872dd146101e5578063313ce567146102055780633950935114610221575b600080fd5b34801561017757600080fd5b506101806104c2565b60405161018d9190611548565b60405180910390f35b3480156101a257600080fd5b506101b66101b13660046115b2565b610554565b604051901515815260200161018d565b3480156101d257600080fd5b506002545b60405190815260200161018d565b3480156101f157600080fd5b506101b66102003660046115dc565b61056e565b34801561021157600080fd5b506040516012815260200161018d565b34801561022d57600080fd5b506101b661023c3660046115b2565b610592565b34801561024d57600080fd5b506102566105b4565b005b34801561026457600080fd5b506102566102733660046115b2565b6105c6565b34801561028457600080fd5b5060075460ff166101b6565b34801561029c57600080fd5b506101d76102ab366004611618565b6001600160a01b031660009081526020819052604090205490565b3480156102d257600080fd5b506102566106ca565b3480156102e757600080fd5b506102566102f6366004611618565b6106dc565b34801561030757600080fd5b506101d77f000000000000000000000000000000000000000000000000000000000000000081565b34801561033b57600080fd5b50610256610784565b34801561035057600080fd5b506005546001600160a01b03165b6040516001600160a01b03909116815260200161018d565b34801561038257600080fd5b5061025661039136600461163a565b610794565b3480156103a257600080fd5b5061018061084a565b3480156103b757600080fd5b506101b66103c6366004611618565b60086020526000908152604090205460ff1681565b3480156103e757600080fd5b506101b66103f63660046115b2565b610859565b34801561040757600080fd5b506101b66104163660046115b2565b6108d4565b34801561042757600080fd5b5060095461035e906001600160a01b031681565b610256610449366004611676565b6108e2565b34801561045a57600080fd5b506101d7610469366004611698565b610bee565b34801561047a57600080fd5b506101d77f000000000000000000000000000000000000000000000000000000000000000081565b3480156104ae57600080fd5b506102566104bd366004611618565b610c19565b6060600380546104d1906116cb565b80601f01602080910402602001604051908101604052809291908181526020018280546104fd906116cb565b801561054a5780601f1061051f5761010080835404028352916020019161054a565b820191906000526020600020905b81548152906001019060200180831161052d57829003601f168201915b5050505050905090565b600033610562818585610c92565b60019150505b92915050565b60003361057c858285610db6565b610587858585610e30565b506001949350505050565b6000336105628185856105a58383610bee565b6105af919061171b565b610c92565b6105bc610fe5565b6105c461103f565b565b6105ce610fe5565b6001600160a01b0382166106295760405162461bcd60e51b815260206004820152601960248201527f496e76616c696420726563697069656e7420616464726573730000000000000060448201526064015b60405180910390fd5b600081116106795760405162461bcd60e51b815260206004820152601c60248201527f4d696e7420616d6f756e74206d75737420626520706f736974697665000000006044820152606401610620565b6106838282611091565b816001600160a01b03167f3f2c9d57c068687834f0de942a9babb9e5acab57d516d3480a3c16ee165a4273826040516106be91815260200190565b60405180910390a25050565b6106d2610fe5565b6105c46000611164565b6106e4610fe5565b6001600160a01b03811661073a5760405162461bcd60e51b815260206004820152601b60248201527f496e76616c6964206469737472696275746f72206164647265737300000000006044820152606401610620565b600980546001600160a01b0319166001600160a01b0383169081179091556040517fc0ebb188f905d128bcd7e4282dd1f9cf24cd331b69071002e488349aca6a867b90600090a250565b61078c610fe5565b6105c46111b6565b61079c610fe5565b6001600160a01b0382166107f25760405162461bcd60e51b815260206004820152601760248201527f496e76616c6964206163636f756e7420616464726573730000000000000000006044820152606401610620565b6001600160a01b038216600081815260086020908152604091829020805460ff191685151590811790915591519182527ff93f9a76c1bf3444d22400a00cb9fe990e6abe9dbb333fda48859cfee864543d91016106be565b6060600480546104d1906116cb565b600033816108678286610bee565b9050838110156108c75760405162461bcd60e51b815260206004820152602560248201527f45524332303a2064656372656173656420616c6c6f77616e63652062656c6f77604482015264207a65726f60d81b6064820152608401610620565b6105878286868403610c92565b600033610562818585610e30565b6108ea6111f3565b6108f261124c565b7f000000000000000000000000000000000000000000000000000000000000000082146109575760405162461bcd60e51b8152602060048201526013602482015272125b9d985b1a59081c1c9bdc195c9d1e481251606a1b6044820152606401610620565b600081116109a75760405162461bcd60e51b815260206004820152601d60248201527f546f6b656e20616d6f756e74206d75737420626520706f7369746976650000006044820152606401610620565b6109b36012600a611812565b6109c090620f4240611821565b811115610a085760405162461bcd60e51b8152602060048201526016602482015275546f6b656e20616d6f756e7420746f6f206c6172676560501b6044820152606401610620565b6000610a34827f0000000000000000000000000000000000000000000000000000000000000000611821565b905080341015610a7e5760405162461bcd60e51b8152602060048201526015602482015274125b9cdd59999a58da595b9d08115512081cd95b9d605a1b6044820152606401610620565b610a89816002611821565b341115610acd5760405162461bcd60e51b8152602060048201526012602482015271115e18d95cdcda5d9948115512081cd95b9d60721b6044820152606401610620565b6000610adb6012600a611838565b610ae59084611821565b30600090815260208190526040902054909150811115610b565760405162461bcd60e51b815260206004820152602660248201527f496e73756666696369656e7420746f6b656e7320617661696c61626c6520666f604482015265722073616c6560d01b6064820152608401610620565b6000610b628334611844565b9050610b6f303384610e30565b6000610b836005546001600160a01b031690565b9050610b8f8185611292565b8115610b9f57610b9f3383611292565b6040805186815260208101869052879133917f9f23792da8c5766811a465a9395666e015a6b93d9f018c7a3b379bc9503d290a910160405180910390a350505050610bea6001600655565b5050565b6001600160a01b03918216600090815260016020908152604080832093909416825291909152205490565b610c21610fe5565b6001600160a01b038116610c865760405162461bcd60e51b815260206004820152602660248201527f4f776e61626c653a206e6577206f776e657220697320746865207a65726f206160448201526564647265737360d01b6064820152608401610620565b610c8f81611164565b50565b6001600160a01b038316610cf45760405162461bcd60e51b8152602060048201526024808201527f45524332303a20617070726f76652066726f6d20746865207a65726f206164646044820152637265737360e01b6064820152608401610620565b6001600160a01b038216610d555760405162461bcd60e51b815260206004820152602260248201527f45524332303a20617070726f766520746f20746865207a65726f206164647265604482015261737360f01b6064820152608401610620565b6001600160a01b0383811660008181526001602090815260408083209487168084529482529182902085905590518481527f8c5be1e5ebec7d5bd14f71427d1e84f3dd0314c0f7b2291e5b200ac8c7c3b925910160405180910390a3505050565b6000610dc28484610bee565b90506000198114610e2a5781811015610e1d5760405162461bcd60e51b815260206004820152601d60248201527f45524332303a20696e73756666696369656e7420616c6c6f77616e63650000006044820152606401610620565b610e2a8484848403610c92565b50505050565b6001600160a01b038316610e945760405162461bcd60e51b815260206004820152602560248201527f45524332303a207472616e736665722066726f6d20746865207a65726f206164604482015264647265737360d81b6064820152608401610620565b6001600160a01b038216610ef65760405162461bcd60e51b815260206004820152602360248201527f45524332303a207472616e7366657220746f20746865207a65726f206164647260448201526265737360e81b6064820152608401610620565b610f018383836113b0565b6001600160a01b03831660009081526020819052604090205481811015610f795760405162461bcd60e51b815260206004820152602660248201527f45524332303a207472616e7366657220616d6f756e7420657863656564732062604482015265616c616e636560d01b6064820152608401610620565b6001600160a01b03848116600081815260208181526040808320878703905593871680835291849020805487019055925185815290927fddf252ad1be2c89b69c2b068fc378daa952ba7f163c4a11628f55a4df523b3ef910160405180910390a3610e2a84848461147b565b6005546001600160a01b031633146105c45760405162461bcd60e51b815260206004820181905260248201527f4f776e61626c653a2063616c6c6572206973206e6f7420746865206f776e65726044820152606401610620565b6110476114ff565b6007805460ff191690557f5db9ee0a495bf2e6ff9c91a7834c1ba4fdd244a5e8aa4e537bd38aeae4b073aa335b6040516001600160a01b03909116815260200160405180910390a1565b6001600160a01b0382166110e75760405162461bcd60e51b815260206004820152601f60248201527f45524332303a206d696e7420746f20746865207a65726f2061646472657373006044820152606401610620565b6110f3600083836113b0565b8060026000828254611105919061171b565b90915550506001600160a01b038216600081815260208181526040808320805486019055518481527fddf252ad1be2c89b69c2b068fc378daa952ba7f163c4a11628f55a4df523b3ef910160405180910390a3610bea6000838361147b565b600580546001600160a01b038381166001600160a01b0319831681179093556040519116919082907f8be0079c531659141344cd1fd0a4f28419497f9722a3daafe3b4186f6b6457e090600090a35050565b6111be61124c565b6007805460ff191660011790557f62e78cea01bee320cd4e420270b5ea74000d11b0c9f74754ebdbfc544b05a2586110743390565b6002600654036112455760405162461bcd60e51b815260206004820152601f60248201527f5265656e7472616e637947756172643a207265656e7472616e742063616c6c006044820152606401610620565b6002600655565b60075460ff16156105c45760405162461bcd60e51b815260206004820152601060248201526f14185d5cd8589b194e881c185d5cd95960821b6044820152606401610620565b804710156112e25760405162461bcd60e51b815260206004820152601d60248201527f416464726573733a20696e73756666696369656e742062616c616e63650000006044820152606401610620565b6000826001600160a01b03168260405160006040518083038185875af1925050503d806000811461132f576040519150601f19603f3d011682016040523d82523d6000602084013e611334565b606091505b50509050806113ab5760405162461bcd60e51b815260206004820152603a60248201527f416464726573733a20756e61626c6520746f2073656e642076616c75652c207260448201527f6563697069656e74206d617920686176652072657665727465640000000000006064820152608401610620565b505050565b6001600160a01b03831615806113cd57506001600160a01b038216155b156113d757505050565b6001600160a01b0383163014806113f657506001600160a01b03821630145b1561140057505050565b6001600160a01b03831660009081526008602052604090205460ff16801561144057506001600160a01b03821660009081526008602052604090205460ff165b6113ab5760405162461bcd60e51b815260206004820152600c60248201526b12d650c81c995c5d5a5c995960a21b6044820152606401610620565b6009546001600160a01b0316156113ab5760095460405163677ba3d360e01b81526001600160a01b0385811660048301528481166024830152604482018490529091169063677ba3d390606401600060405180830381600087803b1580156114e257600080fd5b505af11580156114f6573d6000803e3d6000fd5b50505050505050565b60075460ff166105c45760405162461bcd60e51b815260206004820152601460248201527314185d5cd8589b194e881b9bdd081c185d5cd95960621b6044820152606401610620565b600060208083528351808285015260005b8181101561157557858101830151858201604001528201611559565b506000604082860101526040601f19601f8301168501019250505092915050565b80356001600160a01b03811681146115ad57600080fd5b919050565b600080604083850312156115c557600080fd5b6115ce83611596565b946020939093013593505050565b6000806000606084860312156115f157600080fd5b6115fa84611596565b925061160860208501611596565b9150604084013590509250925092565b60006020828403121561162a57600080fd5b61163382611596565b9392505050565b6000806040838503121561164d57600080fd5b61165683611596565b91506020830135801515811461166b57600080fd5b809150509250929050565b6000806040838503121561168957600080fd5b50508035926020909101359150565b600080604083850312156116ab57600080fd5b6116b483611596565b91506116c260208401611596565b90509250929050565b600181811c908216806116df57607f821691505b6020821081036116ff57634e487b7160e01b600052602260045260246000fd5b50919050565b634e487b7160e01b600052601160045260246000fd5b8082018082111561056857610568611705565b600181815b8085111561176957816000190482111561174f5761174f611705565b8085161561175c57918102915b93841c9390800290611733565b509250929050565b60008261178057506001610568565b8161178d57506000610568565b81600181146117a357600281146117ad576117c9565b6001915050610568565b60ff8411156117be576117be611705565b50506001821b610568565b5060208310610133831016604e8410600b84101617156117ec575081810a610568565b6117f6838361172e565b806000190482111561180a5761180a611705565b029392505050565b600061163360ff841683611771565b808202811582820484141761056857610568611705565b60006116338383611771565b818103818111156105685761056861170556fea264697066735822122035e3d17e81bff58f34329ec05d3cdc07ffb5fb1eb4bd63a75515aa58171058e664736f6c63430008140033",
  "linkReferences": {},
  "deployedLinkReferences": {}
}